:100000000C9427040C946E040C946E040C946E04EF
:100010000C946E040C946E040C946E040C946E0498
:100020000C946E040C946E040C943D2D0C94112EC3
:100030000C94B0270C946E040C946E040C946E0413
:100040000C946E040C946E040C946E040C946E0468
:100050000C946E040C9407280C946E040C946E049B
:100060000C946E040C946E040C946E040C946E0448
:100070000C946E040C946E040C946E040C946E0438
:100080000C946E040C946E040C946E040C946E0428
:100090000C946E040C946E040C946E040C946E0418
:1000A0000C946E040C946E040C946E0429003A00B7
:1000B0003B003C003D003E003F004000410042004C
:1000C0004300440045000151460047004800350008
:1000D0001E001F0020002100220023002400250014
:1000E000260027002D002E002A0049004A004B0060
:1000F0002B0014001A000800150017001C0018003F
:100100000C00120013002F00300031004C004D0095
:100110004E00390004001600070009000A000B0019
:100120000D000E000F003300340028000000000016
:1001300000000000E10000001D001B000600190087
:10014000050011001000360037003800E5000000FF
:10015000000052000000E0000000E300E2000000A8
:10016000000000002C0000000000E600E600E700B0
:10017000E400500051004F000100010001000100A7
:100180000100010001000100010001000100010067
:100190000100010001000100010001000100010057
:1001A0000100010001000100010001000100010047
:1001B0000100010001000100010001000100C25C1A
:1001C000C35CC45CC95CCA5C0100010001000100A1
:1001D0000100010001000100010001000100010017
:1001E0000100010001000100010001000100010007
:1001F00001000100010001000100000000000000FA
:1002000001000100010001000100010001000100E6
:1002100001000100010001000100010000000100D7
:1002200000000100000001000100000000000000CB
:1002300001000000000001000100010001000100B8
:1002400001000100010001000100010001000100A6
:100250000100010001000100010001000100010096
:100260000100010001000100010001000100010086
:100270000100010001000100010001000100010076
:100280000100010001000100010001000100010066
:100290000100010001000100010001000100010056
:1002A0000100010001000100010001000100010046
:1002B0000100010001000100010001000100010036
:1002C0000100010001000000000000000100010029
:1002D0000100010001000100010001000100010016
:1002E0000100010001000100000001000000010008
:1002F00000000100010000000000000001000000FB
:1003000000000100010001000100010001000100E6
:1003100001000100010001000100010001000100D5
:1003200001000100010001000100010001000100C5
:1003300001000100010001000100010001000100B5
:1003400001000100010001000100010001000100A5
:100350000100010001000100010001000100010095
:100360000100010001000100010001000100010085
:100370000100010001000100010001000100010075
:100380000100010001000100010001000100010065
:100390000100000000000000010001000100010058
:1003A0000100010001000100010001000100010045
:1003B0000100010000000100000001000000010038
:1003C000010000000000000001000000000001002A
:1003D0000100010001000100010001000000000017
:1003E000000000002A2B2800000000000000000090
:1003F0000000000000000029000000002C1E342036
:10040000212224342627252E362D3738271E1F205B
:100410002122232425263333362E37381F040506A0
:100420000708090A0B0C0D0E0F10111213141516E4
:100430001718191A1B1C1D2F3130232D35040506E2
:100440000708090A0B0C0D0E0F10111213141516C4
:100450001718191A1B1C1D2F3130354C00000000D5
:10046000000000000000000000000000000000008C
:10047000000000000000000000000000000000007C
:100480007E0F00D4FFFFFFC7000000781E0F05009D
:10049000047F3F1F643214643214783C1E1E140A19
:1004A000052223252628292A2C2D2F3032333536B4
:1004B000383A3B3D3E4042434547494A4C4E5051F5
:1004C000535557595A5C5E6062646668696B6D6F1C
:1004D00071737577797B7D7F81838587898A8C8E1F
:1004E00090929496989A9C9E9FA1A3A5A7A8AAAC27
:1004F000AEAFB1B3B4B6B8B9BBBCBEBFC1C2C3C561
:10050000C6C7C9CACBCCCDCED0D1D2D2D3D4D5D602
:10051000D7D7D8D9D9DADADBDBDBDCDCDCDCDCDD35
:10052000DDDDDDDCDCDCDCDCDBDBDBDADAD9D9D819
:10053000D7D7D6D5D4D3D2D2D1D0CECDCCCBCAC9B1
:10054000C7C6C5C3C2C1BFBEBCBBB9B8B6B4B3B1E0
:10055000AFAEACAAA8A7A5A3A19F9E9C9A9896947B
:1005600092908E8C8A89878583817F7D7B79777550
:1005700073716F6D6B6968666462605E5C5A59572F
:10058000555351504E4C4A4947454342403E3D3BEE
:100590003A3836353332302F2D2C2A292826252378
:1005A00022FFAA7F55400001010101010101010163
:1005B0000202020202020202020303030303030314
:1005C00003040404040404040505050505060606E1
:1005D0000606070707070708080808090909090A9E
:1005E0000A0A0B0B0B0C0C0C0D0D0D0E0E0E0F0F43
:1005F0000F101011111112121313141415151616D1
:100600001717181819191A1A1B1B1C1D1D1E1E1F3F
:100610002020212222232424252626272829292A8E
:100620002B2C2D2D2E2F30313232333435363738B6
:10063000393A3B3C3D3E3F404142434445464748B2
:10064000494A4C4D4E4F50515354555658595A5B88
:100650005D5E5F616264656668696B6C6D6F707228
:10066000737577787A7B7D7E8082838587888A8C94
:100670008E8F91939596989A9C9EA0A2A3A5A7A9C8
:10068000ABADAFB1B3B5B7BABCBEC0C2C4C6C9CBBF
:10069000CDCFD1D4D6D8DBDDDFE2E4E7E9EBEEF075
:1006A000F3F5F8FAFDFF1403470068006F007300CC
:1006B00074002000540038003800000006034C008D
:1006C0005A0000000403090409025B00030100A0B2
:1006D000FA090400000103010100092111010001D0
:1006E0002240000705810308000A090401000203F3
:1006F00000000009211101000122220007058203E8
:100700002000010705030320000109040200010382
:1007100000000009211101000122B6000705840331
:1007200020000A12011001000000087A6CA1880163
:1007300000010200010660FF0961A10109621500C4
:1007400026FF009520750881020963150026FF0029
:10075000952075089102C005010902A101850209D1
:1007600001A1000509190129081500250195087541
:100770000181020501093009311581257F95027536
:1007800008810609381581257F95017508810605C0
:100790000C0A38021581257F950175088106C0C0B5
:1007A00005010980A101850319012AB70015012659
:1007B000B700950175108100C0050C0901A10185E4
:1007C0000419012AA002150126A0029501751081C5
:1007D00000C005010906A1018505050719E029E703
:1007E000150025019508750181020507190029EFFB
:1007F0001500250195F075018102050819012905EB
:10080000950575019102950175039101C0050109D6
:1008100006A101050719E029E715002501950875CE
:100820000181029501750881010507190029FF154D
:100830000026FF00950675088100050819012905A5
:10084000950575019102950175039101C000112470
:100850001FBECFEFDAE0DEBFCDBF04B603FE27C078
:1008600080915E0490915F04A0916004B091610456
:100870008730904BA740B04BD1F410925E04109299
:100880005F04109260041092610414BE84B7877FE5
:1008900084BF0FB6F894A89580916000886180931A
:1008A0006000109260000FBEE0E0F8E3099511E0EF
:1008B000A0E0B1E0E4EEF2E602C005900D92A03EA9
:1008C000B107D9F724E0A0EEB1E001C01D92AE352A
:1008D000B207E1F70E94FD290C9435310C94000019
:1008E000259A269A0C94D9080C94DA080C949F0443
:1008F0000C949706CF93C82F0E949806882331F056
:10090000C1FD06C02D9AC2FD05C02E9ACF91089553
:100910002D98F9CF2E98FACF0E94081340E86FEF78
:1009200080E00E94840F8BE00E94051360E070E07D
:10093000CB010E9424260C94302681E0089581E0AA
:10094000089508950C94A1041F93CF93DF9300D0D2
:1009500000D00F92CDB7DEB749835A836B833091B5
:10096000DF0289819A8131111DC06623B9F02223EB
:10097000A9F00E947B24182F682F89819A810E94F8
:10098000272469817A81812F0F900F900F900F900B
:100990000F90DF91CF911F910C9486170E945324E2
:1009A000182FEFCF0E947B2469817A81EDCFFC0163
:1009B000262F408151816281738184810C94A4042B
:1009C000CF93DF93EC0160E00E94D704BE01DF917A
:1009D000CF910C94A2048F929F92AF92BF92CF922C
:1009E000DF92EF92FF920F931F936B017C0181E0E6
:1009F00090E0A0E0B0E04C015D0104C0880C991CBF
:100A0000AA1CBB1C4A95D2F7B501A4014C015D019B
:100A100004C0880C991CAA1CBB1C2A95D2F7482933
:100A200059296A297B2904C0880F991FAA1FBB1F57
:100A30000A95D2F78A019B010C211D212E213F210D
:100A4000041715072607370789F48C299D29AE2935
:100A5000BF29BC01CD011F910F91FF90EF90DF9056
:100A6000CF90BF90AF909F908F9008958095909574
:100A7000A095B0958C219D21AE21BF21EACF0F9387
:100A8000382F262F6091590370915A0380915B0390
:100A900090915C03042F432F0E94EB040F910C9460
:100AA00065230E94B5080C9470040C947404089596
:100AB0000E94911F0E9457052FEF84E39CE0215074
:100AC00080409040E1F700C000000C942B280F9369
:100AD0001F93CF93DF938C0161E00E94D704EC0158
:100AE000B8010E946C15882309F441C0B801CE01F9
:100AF0000E9476048823D9F1B801CE010E94BB1868
:100B00008823A9F1B801CE010E940D19882379F13B
:100B1000B801CE010E94301A882349F1B801CE01F4
:100B20000E941C14882319F1F8018281882361F046
:100B3000CA35FDE5DF0721F170F4C115ECE5DE07EC
:100B4000A1F0CE3DDC45C9F0C801DF91CF911F91E6
:100B50000F910C949D04CB358DE5D807A1F0CC35D1
:100B6000DD4591F70E942225EFCF0E94580580E0D5
:100B7000DF91CF911F910F9108950E949426F7CF96
:100B80000E942B25E1CF0E942E25DECFDF92EF922F
:100B9000FF920F931F93CF93DF93E82FF0E0E4527F
:100BA000FC4FD490282F26952695269530E0F90104
:100BB000E458FB4F0491877010E0082E02C0159591
:100BC00007950A94E2F701701127F901E459FB4FE8
:100BD000E490F12C082E02C0F594E7940A94E2F711
:100BE00091E0E922FF24F901E45AFB4FC491D0E0DF
:100BF00002C0D595C7958A95E2F7C170DD2701152A
:100C0000110519F081EE0E94111CE114F10419F094
:100C100086EE0E94111C8D2D0E94101DEF2819F0E8
:100C200086EE0E94A31C012B19F081EE0E94A31CEA
:100C3000CD2B51F08CE2DF91CF911F910F91FF905E
:100C4000EF90DF900C94101DDF91CF911F910F91C9
:100C5000FF90EF90DF900895EF92FF920F931F9314
:100C6000CF93DF93EC01162F0AE08881882309F4E3
:100C700054C0813009F04EC08981813099F47E01E1
:100C800022E0E20EF11C8A810E94101DE7012196EC
:100C9000812F815050F3EFE9FFE03197F1F700C069
:100CA0000000F7CF823041F47E0182E0E80EF11CB3
:100CB0008A810E94111CEACF833041F47E01E2E078
:100CC000EE0EF11C8A810E94A31CE0CF843011F04B
:100CD0002196DDCF2A81229690E080E0AE014F5F21
:100CE0005F4F2053330B2A30310548F0019778F2DB
:100CF000EFE9FFE03197F1F700C00000F7CF089F60
:100D0000B001099F700D1124C901860F971F298119
:100D1000EA01E4CF0E94C605BACFDF91CF911F91BF
:100D20000F91FF90EF90089560E00C942C060895C9
:100D300081E00895CF93C82F0E9478048C2FCF9123
:100D40000C947A0490E080E008950895FC01EE0F81
:100D5000FF1FE457FB4F859194910895CF93DF9344
:100D60000E9486170E94C307EC01811520E59207B7
:100D700008F042C0811530E4930708F0BDC0883EFA
:100D8000910528F5803E910508F09DC0883A9105AF
:100D900088F4853A910508F08FC08130910509F4F7
:100DA00092C0009709F48FC0049708F08CC0D0E07F
:100DB000C0E089C08F3B910508F489C0805C91092F
:100DC000C03CD105A0F30E94A606EC017CC08115B1
:100DD000904250F4C11581E0D80708F074C0C03FBC
:100DE000D10528F3D0656FC0C11590E3D90708F08D
:100DF00079C0CE019F70E7CF811525E5920758F5A0
:100E0000811534E5930708F0A6C0811542E59407E3
:100E100050F4C11581E5D80708F471C0DC2FCC2748
:100E2000C16FD06A50C0982F969596959E012370F9
:100E30003327C115D34508F07FC0C1E0D0E002C020
:100E4000CC0FDD1F2A95E2F720E2929FC00111240A
:100E5000C82BD92B6FC0C11589E5D807A8F4C115D7
:100E600098E5D90708F07CC0C11526E5D20708F03F
:100E70009ECF8C2F0E945A08C82FD0E0DC2FCC27A1
:100E8000CC27DF71D0621FC0C1153AE5D30708F443
:100E90006CC0CE0190568115904208F088CF8D2FFE
:100EA0008F710E945A0890E0982F882788279F7199
:100EB0009C012C2BE901E6CFC55AD0E0C65ADE4F83
:100EC000C881D0E0D064CE01DF91CF910895C85A97
:100ED000D0E0CC0FDD1FC45DDE4F0990D881C02D5E
:100EE000D464F1CFCE019927D3FF03C0EC01D86CB5
:100EF000EACFEC01D06CE7CFDF70D06AE4CFCE014F
:100F0000E4E096958795EA95E1F783702C2F269576
:100F10002695237090E2299F90011124382B8C2F65
:100F20008370C1E0D0E002C0CC0FDD1F8A95E2F7EC
:100F3000C22BD32BDC68C7CFC1E0D0E002C0CC0FFE
:100F4000DD1F2A95E2F730E2939FC0011124C82BE0
:100F5000D92BDA68B8CFD82FCC27C46FD06AB3CFDB
:100F6000DC2FCC27C06FD06AAECF8C2F8F700E9441
:100F70005A0834E0D695C7953A95E1F7CF709C2F83
:100F8000EC01D069A0CF82389105B1F1B0F4813382
:100F9000910509F475C048F48932910509F469C0D6
:100FA0008A32910509F473C008958533910509F4D7
:100FB00059C08933910501F10895833E9105A9F146
:100FC00038F4803E9105F9F0823E910549F108958B
:100FD000863E9105A9F1873E9105C9F1843E9105B0
:100FE00019F52091AB0321FF1FC08091AA0384FD56
:100FF00014C087EE90E008952091AA032370A1F019
:1010000080EE90E008952091AA0320FD47C0309122
:10101000AB0330FF09C024FF44C090E080E004C06F
:101020002091AA0322FDF7CF08952091AA0322FD63
:101030003BC03091AB0330FDE3CF24FFF5CFEDCFC4
:101040002091AA0323FFF0CF24FDE7CFD2CF209138
:10105000AA0323FD2CC03091AB0331FFEECF84EE09
:1010600090E008952091AA0325FFDECF89E290E069
:1010700008952091AA0325FFD7CF85E390E0089536
:101080002091AA0326FFD0CF8AE290E00895209114
:10109000AA0326FFC9CF81E390E0089589E390E099
:1010A000089583EE90E0089582EE90E0089586EE34
:1010B00090E008959091AA0392FF06C0282F28710E
:1010C0002830F9F4877F846093FF06C0282F2871A9
:1010D0002831F1F4877E84612091AB0320FF06C0A4
:1010E000382F38713830D9F4877F816021FF06C0EE
:1010F000282F28712831D1F4877E816194FD877E65
:101100000895282F24712430F9F68B7F8860DCCF76
:10111000282F2471243101F78B7E8861DDCF382F91
:101120003171313019F78E7F8860E0CF282F21711F
:10113000213121F78E7E8861E1CF0C9446150E9403
:101140003F098FE39CE90197F1F700C000000E947E
:101150003F0980E00E94DB0860FF04C00E949D08F8
:101160000C942B2808950C949F080E94F625811159
:1011700002C00E9494260E940126809386030E944A
:1011800009269093AB038093AA030E94B3080E94A0
:101190000526682F70E090E080E00E94292360918E
:1011A000590370915A0380915B0390915C030C94F6
:1011B00063230895089594E0899FF0011124EC536E
:1011C000FC4F60817181828193810895089580EA46
:1011D0008A95F1F7089500C008950C94E708F894F3
:1011E000E82FE295EF70F0E031A1282F2F7081E019
:1011F00090E001C0880F2A95EAF7982F90959323E5
:1012000091A392A1892B82A3789408950F931F93A1
:10121000CF93DF9387E60E94EF0880EF0E94EF08EC
:1012200081EF0E94EF0884EF0E94EF0885EF0E9493
:10123000EF0886EF0E94EF08CDE5D1E00EE611E061
:1012400089910E94EF080C171D07D1F7ECEAF3E033
:10125000A4ECB3E011921192119211921D921D9281
:101260001D921D9283E0E43CF807A1F786E00E94FE
:10127000DF09DF91CF911F910F910C9451054F928F
:101280005F926F927F928F929F92AF92BF92CF9216
:10129000DF92EF92FF920F931F93CF930EE611E030
:1012A0003CEAE32E33E0F32EC0E0CC24C394D12CEF
:1012B000F80181918F01F894E82FE295EF70F0E04A
:1012C00021A18F70260102C0440C551C8A95E2F7BB
:1012D000C201922F982B91A392A18095892382A37A
:1012E00078940E94EB08ADE5B1E090E080E0812CBD
:1012F000912C54014D91E42FE295EF70F0E020A184
:1013000030E04F7002C0359527954A95E2F720FDF1
:1013100050C0412C512C32014394082E04C0440C7F
:10132000551C661C771C0A94D2F7B301A201842ACB
:10133000952AA62AB72A019681319105D9F6F80196
:10134000319780810E94EF080E94ED08F7018081AB
:101350009181A281B38188169906AA06BB0669F11C
:1013600080829182A282B38281E0C82BF4E0EF0EEA
:10137000F11C41E00437140709F09ACF2C2F46E006
:1013800064EC73E08CEA93E00E94E0090E9455054A
:101390008C2FCF911F910F91FF90EF90DF90CF9006
:1013A000BF90AF909F908F907F906F905F904F9085
:1013B000089540E050E0BA01BACF80E0D6CF08955A
:1013C000FF920F931F93CF93DF93F82ED92F8B01AA
:1013D000C42F222349F081E08093E4010E94E0279A
:1013E0009093E3018093E2018091E401882399F0D6
:1013F0008091E2019091E3010E94F827069758F04E
:10140000EF2DFD2FD80190E080E0D0E08C179D07F4
:1014100044F01092E401DF91CF911F910F91FF9062
:10142000089501911191219131910D931D932D9367
:101430003D930196EBCF8091EB0180FF12C060914C
:10144000090185E0689FB001112475956795759530
:10145000679560387105A8F561157105A1F1862FB2
:10146000089581FF09C06091090185E0689FB0017E
:10147000112475956795EDCF6091090182FD0AC031
:101480008091EA018823D1F09091080160910901CF
:10149000891728F085E0689FB0011124DACF869F74
:1014A000B001112485E0869F9001879F300D1124A3
:1014B000692F70E0C9010E94F12FCBCF65E070E089
:1014C000CECF8FE7089581E008958091EB0180FFF2
:1014D0000CC06091050170E07595679575956795ED
:1014E0006115710549F1862F089581FF06C060914D
:1014F000050170E075956795F3CF6091050182FD58
:101500000BC09091E9019923A1F0609104018091B1
:101510000501961738F0682F70E06038710500F308
:101520008FE70895899FC001112470E00E94F12F78
:10153000F4CF61E070E0D7CF81E00895803F31F4CF
:101540000E941B0A81958093EF010895813F19F451
:101550000E941B0AF8CF823F31F40E941B0A81953A
:101560008093EE010895833F19F40E941B0AF8CF7F
:10157000893F29F40E94650A8093F00108958A3F0B
:1015800021F40E94650A8195F7CF8B3F31F40E94C8
:10159000650A81958093F10108958C3F19F40E94AA
:1015A000650AF8CF9CE0980F953070F4845F990B32
:1015B00021E030E001C0220F8A95EAF78091ED0129
:1015C000822B8093ED0108958D3F31F48091EB01E2
:1015D00081608093EB0108958E3F21F48091EB01AF
:1015E0008260F7CF8F3FB9F78091EB018460F1CF34
:1015F0004091EE01803F59F48091EF0187FF0DC0CB
:101600001092EF0141110BC01092EA0108C0813F16
:1016100081F48091EF0118169CF3442381F08091AE
:10162000F0019091F101892B09F05AC01092E90163
:101630000895823F49F447FFF0CF1092EE01809168
:10164000EF018111ECCFE0CF833F19F41416ACF316
:10165000E4CF9091F001893F29F41916F4F6109225
:10166000F001DBCF8A3F19F497FFD7CFF8CF9091E5
:10167000F1018B3F29F497FFD0CF1092F101CDCF2C
:101680008C3F19F41916CCF3C8CF9CE0980F953015
:1016900090F4845F990B21E030E0B90102C0660F3D
:1016A000771F8A95E2F7CB0180959091ED01892310
:1016B0008093ED01B2CF8D3F31F48091EB018E7FAD
:1016C0008093EB01AACF8E3F21F48091EB018D7FB7
:1016D000F7CF8F3F09F0A1CF8091EB018B7FF0CF47
:1016E00008950E94E0279C019091EE018091EF0106
:1016F000982B21F03093E8012093E7019091F001BD
:101700008091F101982B21F03093E6012093E501BF
:101710008CEE91E00C94851AEF92FF920F931F9339
:10172000CF93DF9300D000D000D0CDB7DEB786E0F6
:10173000ECEEF1E0DE01119601900D928A95E1F751
:10174000E090EE01F090EF010091F0011091F101B5
:101750001092EE011092EF011092F0011092F1013F
:101760008E2D8F2991F08091E7019091E8010E94E0
:10177000F827AC019091EA01992309F43FC08091C8
:101780000A018417150608F447C0802F812B91F0B9
:101790008091E5019091E6010E94F827AC019091BB
:1017A000E901992309F477C0809106018417150691
:1017B00008F47FC08091EE019091EF01892B909108
:1017C000F001892B9091F101892B11F00E94710B8E
:1017D00086E0FE013196ACEEB1E001900D928A9563
:1017E000E1F726960FB6F894DEBF0FBECDBFDF91AE
:1017F000CF911F910F91FF90EF90089520910B01D1
:101800008AE0289F900111242417350708F0BDCFE6
:101810009F5F9093EA0102C09F3FD1F7EE2059F0FD
:101820000E941B0A9FEF1E140CF491E0899F802DEB
:1018300011248093EE01FF2059F00E941B0A9FEFB4
:101840001F140CF491E0899F802D11248093EF01E7
:101850003091EE01332309F498CF2091EF01222338
:1018600009F493CF45EB3403C0011124992359F0B7
:101870009093EE0145EB240390011124332339F0BA
:101880003093EF0182CF81E08093EE01F3CF81E0CE
:101890008093EF017ACF209107018AE0289F900181
:1018A00011242417350708F085CF9F5F9093E90135
:1018B00002C09F3FD1F7002359F00E94650A9FEFB5
:1018C00010160CF491E0899F802D11248093F00173
:1018D000112359F00E94650A9FEF11160CF491E054
:1018E000899F802D11248093F1013091F0013323E1
:1018F00009F460CF2091F101222309F45BCF45EB7D
:101900003403C0011124992359F09093F00145EB61
:10191000240390011124332339F03093F1014ACF8D
:1019200081E08093F001F3CF81E08093F10142CF19
:1019300086E0ECEEF1E0DF011D928A95E9F7109266
:10194000EA011092E9011092EB010895EF92FF92E3
:101950000F931F93CF93DF93EB01E82FD11110C0AA
:10196000442321F0F0E0EA55FA4FE4916E2F7E2FE8
:101970008E2FDF91CF911F910F91FF90EF900895DF
:101980000D2F10E0282F30E0442329F02A553A4F3C
:10199000F901249130E0F6E0CF9FC0011124EFEF70
:1019A000F0E0BF010E94DD2FAB018C2F90E0880F8B
:1019B000991FA5E5A49FB001A59F700D1124861B5A
:1019C000970B982F990F980FBF01601B710B629FA7
:1019D000D001639FB00D729FB00D11248B2F9D9F7E
:1019E000B0011124672F7727EF01C61BD70BBE016B
:1019F000629FE001639FD00D729FD00D11247F0183
:101A0000E91AF108E09EB001E19E700DF09E700DA4
:101A10001124672F7727E61BF70BE29F8001E39FD6
:101A2000100DF29F100D1124E12F722F423051053D
:101A300099F048F44115510569F04130510581F0A4
:101A4000EB2F8D2F07C04430510569F080F04630F0
:101A50005105B1F76E2F8DCFE22F7B2F812FFACF5B
:101A6000E22F7D2FF7CFEB2F822F712FF3CF7B2F1C
:101A7000822FED2FEFCF41E00C94A60C08950C942B
:101A80003B0DCF93DF93762FE901682F842F0E94BF
:101A90003F0D798368838A83DF91CF910895809188
:101AA000DC03982F9E7F29F4817082608093DC0391
:101AB00008958635E8F381708465F8CF88E090E07A
:101AC0000C94D630CF92DF92EF92FF926B017C01A3
:101AD0000E944F0DB701A60188E090E0FF90EF90C3
:101AE000DF90CF900C94F4306091DC037091DD03B3
:101AF0008091DE039091DF030C94620DECEDF3E036
:101B000083E0808311828FEF8283838314826081DC
:101B10007181828193810C94620D8091DC0380FF3E
:101B200002C08695089580E008959091E003933077
:101B300018F49F5F9093E003882351F06091DC03D9
:101B40007091DD038091DE039091DF030C94620DB0
:101B5000089581E00C94950D9091E003992319F07C
:101B600091509093E003882351F06091DC037091D1
:101B7000DD038091DE039091DF030C94620D0895E4
:101B800081E00C94AC0D8091E00308958093E00314
:101B9000662351F06091DC037091DD038091DE03D8
:101BA0009091DF030C94620D089560E00C94C60DD3
:101BB0008091DD0308958091DE0308958091DF0315
:101BC000089570E00C94E914609110018091DC0399
:101BD00080FF0AC080910F0123E0829FC001112481
:101BE0008F519C4F0C94E10D809111019091120145
:101BF00023E0829FF0011124EF51FC4F891750F729
:101C00001182108212828F5F3396F8CF9091DC039D
:101C100090FF14C0909111012091120133E0939F25
:101C2000F0011124EF51FC4F921710F00C94E40DC9
:101C30008183608342839F5F3396F6CF0895CF936D
:101C4000DF9300D00F92CDB7DEB79091DC0390FF09
:101C50000AC09E012F5F3F4F0E94410D4B81698159
:101C60008A810E94060E0F900F900F90DF91CF9106
:101C70000895CF93DF93EC01EC81F0E0EF55FB4F3B
:101C80004491ECEDF3E0628181810E941F0E8C8112
:101C90008F5F8C83DF91CF910895CF93DF93EC0119
:101CA000ECEDF3E0438162818C810E941F0E8C81F8
:101CB0008F5F8C83DF91CF9108950F931F93CF9304
:101CC000DF9300D00F92CDB7DEB78C018091F20187
:101CD00081110AC09E012F5F3F4F4FEF6FEF0E94AF
:101CE000410D8A818093F201F8016481613069F0CD
:101CF0008091F20140E0662361F040E0623011F42F
:101D00004091F20180E060E004C06091F20140E0A7
:101D100080E00E94060EF801848190E0019663E065
:101D200070E00E94F12F84830F900F900F90DF914D
:101D3000CF911F910F910895AF92BF92CF92DF92F2
:101D4000EF92FF920F931F93CF93DF9300D00F92E8
:101D5000CDB7DEB7182FF62E042FE22E9091DC03BC
:101D600090FF29C0E92FE695AE2FB0E0AC58BE4FEA
:101D70008C918093B2029E7F923059F59E012F5F25
:101D80003F4F812F0E94410D4B8169818A810E94C2
:101D9000060E1093DD03F092DE030093DF03EE20C6
:101DA00051F06091DC037091DD038091DE0390912E
:101DB000DF030E94620D0F900F900F90DF91CF9183
:101DC0001F910F91FF90EF90DF90CF90BF90AF9059
:101DD0000895823019F40091DF03DBCF863019F4C7
:101DE0001091DD03D6CF8930D9F3893191F6E951CD
:101DF0008E2F8170D82EE695F0E0EF55FA4FA59022
:101E0000B490C12CBB2460911301C61618F00E9437
:101E1000E40DBFCF2C2D30E0A29EC001A39E900DFB
:101E2000B29E900D112470E00E94DD2F812FD11001
:101E300013C0860F40911101420F532F511D9A017B
:101E4000220F331F240F351F2F513C4F402F6F2D72
:101E50000E94410DC394D7CF861BECCFECEDF3E08D
:101E60009181282F4381628188E0890F0C949C0E18
:101E700081E00C942E0FECEDF3E09181282F43814B
:101E8000628188EF890F0C949C0E81E00C943B0FCB
:101E9000ECEDF3E0628128E0620F08F46FEF282F89
:101EA000438181810C949C0E81E00C94480FECEDF1
:101EB000F3E0628128E0621B08F460E0282F438190
:101EC00081810C949C0E81E00C94570FECEDF3E0B3
:101ED000438128E0420F08F44FEF282F628181816F
:101EE0000C949C0E81E00C94660FECEDF3E04381C2
:101EF00028E0421B08F440E0282F628181810C9485
:101F00009C0E81E00C94750F21E00C949C0E20E057
:101F10000C949C0EEF92FF921F93CF93DF93EC01F2
:101F200010E0EE24EA94F12C60911301161770F082
:101F30000E94E40D9A818C8190FF27C08F5F8C8373
:101F4000DF91CF911F91FF90EF90089520911101A3
:101F5000422F410F5527551FCA019A01220F331FE7
:101F6000280F391F2F513C4F70E0C7010E94F12FFD
:101F7000962F8C814091DF036091DE03199F800DC5
:101F800011240E94410D1F5FCFCF8150D8CFAF9257
:101F9000BF92CF92DF92EF92FF920F931F93CF9356
:101FA000DF93FC0182810FEF80FF01E010E044E24B
:101FB000A42E809113011817C8F00E94E40D80919F
:101FC000F401013009F055C0811102C08091130164
:101FD00081508093F401DF91CF911F910F91FF9079
:101FE000EF90DF90CF90BF90AF900895C091110116
:101FF000C12ED12CCC0DDD2DD11DCE01880F991F06
:10200000C80FD91FCF51DC4F198218821A8234E0D1
:10201000E32EF12CB12C8091F4018B0D85321CF153
:102020006A2D0E94CF2F892F082E000C990BC816FD
:10203000D90691F48091DF038E9DA0018F9D500DF4
:10204000112455954795559547959E016091DE035E
:102050008091DD030E94410DB00EF1E0EF1AF1080E
:10206000D1F61F5FA6CF87FFDFCF90911301890FB5
:10207000DBCF90E001966091130170E00E94F12F98
:10208000A8CF0F931F93CF93DF938091110190916D
:10209000120123E0829FF0011124EF51FC4F8917B8
:1020A00040F1C0E0D3E060911301C61740F10E94F7
:1020B000E40D20910D018091F301820F8093F301D3
:1020C00090910E01920F90930E01191654F4082E60
:1020D000000C990B409113014150550B8417950743
:1020E0001CF0219520930D01DF91CF911F910F914D
:1020F00008951182108212828F5F3396D0CF0C2FF9
:1021000010E070E0C8010E94F12F20911101820FB0
:10211000482F50E02091F301022E000C330B0217E0
:102120001307BCF020910E01022E000C330B201778
:1021300031077CF08D9F900111242F513C4F40912D
:10214000DF036091DE038091DD030E94410DCF5FCC
:10215000AACFFA01EE0FFF1FE40FF51FEF51FC4F5E
:10216000118210821282F3CF8F929F92AF92BF9210
:10217000CF92DF92EF92FF920F931F93CF93DF9353
:10218000EC014C81042F10E09801D8010E943C30F2
:102190009B01AC010E9452304B015C01E0E2F0E097
:1021A000E01BF10BA5E5B0E0AC019B010E945230B1
:1021B0006B017C019F01DF010E9434309B01AC0167
:1021C0000E945D309B01AC01280D391D4A1D5B1D2D
:1021D000C701B6010E940530F22E822F90E039E24D
:1021E0003F1560F143E0249F900111243595279518
:1021F000122F109500E085E5E82EEF18809113016D
:10220000081758F10E94E40D9C8181E0992319F090
:10221000903219F48FEF80930C0180910C01890F9B
:102220008C83DF91CF911F910F91FF90EF90DF9002
:10223000CF90BF90AF909F908F90089525E530E0AC
:10224000B901681B790B9B01220F331F260F371F23
:1022500037FFCCCF2F5F3F4FC9CF8E2D01FD8F2D84
:1022600020911101622F600F7727771F9B01220FAA
:10227000331F260F371F2F513C4F412F6091DE0334
:102280000E94410D0F5FBACF0F931F93CF93DF933F
:10229000EC0110E000E0909113019017110609F095
:1022A0006CF40E94E40D8C8190E001968170992776
:1022B0008C83DF91CF911F910F910895209111018F
:1022C000A801420F511D9A01220F331F240F351F01
:1022D0002F513C4F4C816091DE038091DD03969538
:1022E0009017110651F04CF0442349F04091DF0360
:1022F0000E94410D0F5F1F4FCECF4423B9F340E042
:10230000F7CF4F925F926F927F928F929F92AF9290
:10231000BF92CF92DF92EF92FF920F931F93CF93D2
:10232000DF93FC016280448081E08483E1EAF4E091
:102330007490E0E2F5E0E491812C75E0972EF2E0F4
:10234000CF2EDD24D394AA24AA94B12C55245A94D8
:10235000E7190E2F10E080911301881690F0DF919D
:10236000CF911F910F91FF90EF90DF90CF90BF9092
:10237000AF909F908F907F906F905F904F900C9454
:10238000E40DE82CF12C82E0861568F09E9CF001AB
:102390009F9CF00D1124EB50FE4F8091DD03808354
:1023A0008091DE038183411023C09E9CF0019F9C9D
:1023B000F00D1124EB50FE4F138212822091110177
:1023C000C701820F911D9C01220F331F280F391F57
:1023D0002F513C4F9E9CF0019F9CF00D1124EB501F
:1023E000FE4F4281618180810E94410D8394B3CF71
:1023F0009E9CE0019F9CD00D1124CB50DE4F8B8121
:102400008823E9F081508B83859DC00111246C8164
:1024100070E00E94DD2FFB01FF27EF55FB4F8491F9
:10242000E82FE719E59DC0011124B8010E94DD2FB6
:102430008091DF03689FB00111247A83BFCF0E948F
:10244000B1302091DF03269521582C9DA0012D9DB0
:10245000500D1124452F5527841795070CF0AECF4A
:1024600082E0861588F40E94B130B5010E94F12FF8
:1024700088830E94B1302091DE032695622F70E0A0
:102480000E94F12F280F29839E9CF0019F9CF00D44
:102490001124EB50FE4F12828091DF03893C58F0EB
:1024A00088EC9E9CF0019F9CF00D1124EB50FE4F98
:1024B0008483838383CF8431A0F784E1F2CFECED72
:1024C000F3E080818E7F808360817181828193813E
:1024D0000E94620D1092B3022FEF80E792E021502C
:1024E00080409040E1F700C000000C94E40DECED5A
:1024F000F3E080818E7F80831092B3022FEF80E71C
:1025000092E0215080409040E1F700C000000C9420
:10251000E40D1092B3028091B00281110AC081E0F3
:102520008093B0028091DC0381708093AF020C94A1
:10253000771208956091DC03669570E04BE050E0FF
:1025400084E191E00E94C130892B19F481E08093ED
:10255000B3020E94E0279093AA028093A9020895F3
:102560009091DC0390FF35C09170811128C092607A
:102570009093DC03662351F06091DC037091DD03DE
:102580008091DE039091DF030E94620D6091DC0375
:10259000669570E04BE050E084E191E00E94C1302C
:1025A000892BA1F01092B30281E08093AC0240919C
:1025B000DF036091DE038091DD030C94870F8B3283
:1025C00010F09465D5CF880F982BD2CF0E949A1225
:1025D000EBCF0895682F9091DC03969581E0890FE9
:1025E0008B3208F081E00C94B01281E00C94EA1276
:1025F000682F9091DC0396958FEF890F09F48AE29A
:102600000C94B01281E00C94F81261E00C94B012BA
:10261000ECEDF3E080818160808386950C94051356
:102620008091DC0380FD0C945F120C94081360E031
:102630000C94B0128091B10281112EC00E94F62537
:10264000811104C00E9494260E947E0D0E945E0D9E
:102650006093DC037093DD038093DE039093DF03CC
:102660006E7F61F40E947E0D0E945E0D6093DC031C
:102670007093DD038093DE039093DF030E944F0D80
:102680001092B3028091DC0380FF03C086950E9404
:10269000171381E08093B1020895ECEDF3E080819F
:1026A0008160808386950C9417131092B0028091FC
:1026B000AF0281110E944D130C949A120F931F9335
:1026C000CF93DF938091B302882309F496C0809161
:1026D000B202E091DC03E695E81BE093AB028230A6
:1026E00091F5F0E0E356FB4FE491CE2FD0E009E303
:1026F0001EE08091AC02882361F01092AC020E942F
:10270000E0279093AA028093A9021092AE02109241
:10271000AD020E94E027E091A902F091AA028E1B6F
:102720009F0B8F3F9F4708F068C0EC0FFD1FF09391
:10273000AA02E093A90289EA92E0F801DF91CF9121
:102740001F910F910994863049F4F0E0E656FB4F53
:10275000E491CE2FD0E00DE41EE0CBCF893051F4D0
:10276000E695F0E0E956FB4FE491CE2FD0E00AE881
:102770001FE0BFCF8F3051F4E695F0E0EC56FB4FF1
:10278000E491CE2FD0E007EC1FE0B3CF853149F4C0
:10279000F0E0EF56FB4FE491CE2FD0E001E410E1E2
:1027A000A8CFC8E2D0E004EB10E1883109F4A1CF52
:1027B000833239F4EFE8F4E0C591D4910DE51EE0E1
:1027C00098CFC4EFD1E004E411E1843209F491CF51
:1027D000C0EDD7E00EE31DE0853209F08ACF8E2FE1
:1027E00063E00E94C32FE92FF0E0E457FB4FE49130
:1027F000CE2FD0E001E811E17CCFDF91CF911F9186
:102800000F910895FA01811101C0FB010994CF9342
:10281000DF93C82FD62F0E948D0D8C1740F00E9499
:102820008D0D8D1720F4DF91CF910C94F5128C2F24
:10283000DF91CF910C9405131F93CF93DF93EC019D
:10284000FB011281112309F4C2C00E94312582725A
:10285000CC3CFCE5DF0709F4A0C008F044C0C63C4E
:10286000ECE5DE0709F485C0F0F4C33C9CE5D9072C
:1028700009F475C048F4C23CDC4509F46CC0812FF2
:10288000DF91CF911F910895C43C9CE5D90709F4CD
:102890006BC045E45FE068E37FE0C53CDC4579F769
:1028A0000E9402145AC0C93CFCE5DF0709F46BC062
:1028B00068F4C73CECE5DE0709F460C044E55FE07E
:1028C00063E67FE0C83CDC4559F3D9CFCA3C9CE5C0
:1028D000D90709F45DC040EC5DE069EA7DE0CB3CDE
:1028E000DC45F1F2CCCFC13DFCE5DF0709F464C063
:1028F00098F4CE3C9CE5D90709F458C008F452C0BE
:10290000CF3CFCE5DF0709F454C0C03DDC4509F0CD
:10291000B6CF6EE089E01CC0C43D9CE5D90709F440
:1029200051C058F4C23DFCE5DF0709F448C0C33D7F
:10293000DC4509F0A4CF88E136C0C53D9CE5D90748
:1029400009F443C06AE285E2CD35DD4509F097CF51
:102950000E94071402C00E94101310E090CF42E0C2
:1029600053E165EF72E19CCF45EF52E162E073E124
:1029700097CF48E35FE065E47FE092CF43E65FE016
:1029800064E57FE08DCF41E85FE062E77FE088CFDC
:1029900042E75FE061E87FE083CF49EA5DE060EC19
:1029A0007DE07ECF81E00E940513D7CF65E082E015
:1029B000CFCF68E086E0CCCF64E18FE0C9CF67E19C
:1029C00085E1C6CF62E289E1C3CF83E2ECCF11E0BB
:1029D00056CF6A9A4EB14B7F5EB15460EFB7F89410
:1029E0009B01220F331F260F371F280F391F28176F
:1029F000390741F4EFBF8FE594E00197F1F700C08C
:102A000000000895DC016D91CD0178E05EB9000011
:102A100000C067FF4EB9660F000000C000C000C0D4
:102A20004EB900C07A9591F7E2CF83E290E00E9420
:102A3000CE30813289F484E290E00E94CE3087303B
:102A400059F485E290E00E94CE3091E0803209F0A6
:102A500090E0892F8170089580E0FCCFCF93C82F3C
:102A60006FEF811161E283E290E00E94E2306FEF4C
:102A7000C11167E084E290E00E94E2306FEFC11183
:102A800060E285E290E0CF910C94E23080E00E9419
:102A90002E150C94F025089586E290E00E94CE3029
:102AA000682F70E090E080E0089586E290E00C945A
:102AB000E2300E944B150E94151581110CC060E098
:102AC00070E0CB010E9455150E94FE160E94E81787
:102AD00081E00C942E150895CF93FB01C281CC2385
:102AE00009F19C0122513F452031310520F58251E9
:102AF0000E94F817C0E08C2FCF91089581E00E94CA
:102B00008B2343E062E081E00E943F05F3CF81E048
:102B10000E94AC2343E062E081E00E943F05EBCFDE
:102B200082E0F6CF8031FFE59F0789F381319F4531
:102B3000B9F3C1E0E0CF8031EFE59E07F9F28131D2
:102B40009F45C9F682E0DBCF2FEFFC01208308957B
:102B5000CF93DF93EC0188818138A9F028F4803885
:102B600071F0DF91CF910895823881F08338C9F7F1
:102B70000E94D80D89830E94DB0D8A83F2CF0E94C8
:102B8000DE0D8983EECF0E948D0DFBCF0E94C30D19
:102B9000F8CFCF93DF93EC0188818138E1F028F4FE
:102BA000803869F0DF91CF910895823811F1833830
:102BB000C9F70E94DE0D482F6A81898108C0D9813A
:102BC0000E94DB0DC82F0E94D80D4D2F6C2FDF9176
:102BD000CF910C94870F89810E94171389818111ED
:102BE00004C0DF91CF910C947712DF91CF910C94B8
:102BF0004D138981DF91CF910C94D50DEF92FF9207
:102C00000F931F93CF93DF93EC01E62EDC01ED9140
:102C1000CD01E150E33108F0AEC0F0E0E95CFE4CDC
:102C20000C942730198289E08A836E2DCE01DF91C2
:102C3000CF911F910F91FF90EF900C94F228898112
:102C4000823069F0833071F08130E1F40E94EC272A
:102C50000E942D306A837B838C839D83E6CF0E9404
:102C60004C15F6CF8E01F12C8F2D0E94DB08F80158
:102C7000828373836483F3940D5F1F4FF6E0FF122A
:102C8000F3CFD3CF6E2DCE010E94A415CECF898174
:102C90008230C1F76A817B818C819D810E942D30B9
:102CA0000E945515C2CF4B816A8189810E94D0163E
:102CB0009827892798279D838C83B7CF2C813D81C6
:102CC0003227232732274B816A8189810E94E916A6
:102CD000ACCF0E94FE16A9CF0E94C915A6CF0E94B4
:102CE000A815A3CF0E94740DA0CF0E9493178983CB
:102CF0009CCF0E9495179827892798279A838983C4
:102D000094CF6B8170E089819A81AE014C5F5F4FF7
:102D10009827892798270E94981787CF6B8170E0A2
:102D200089819A81AE014C5F5F4F98278927982748
:102D30000E94BE177ACF0E94E81777CF0E94BE1676
:102D4000D6CF6B8170E089819A81AE014C5F5F4F75
:102D50009827892798270E94361767CF6B8170E0E4
:102D600089819A81AE014C5F5F4F98278927982708
:102D70000E945C175ACF8FEF888357CF84E0089565
:102D800050E0440F551F92E2699F400D511D1124E0
:102D90009CEC899F400D511D1124CA01879608950E
:102DA0000F931F93CF93DF930E94C0168C010E9454
:102DB000CE30C82FD0E0DC2FCC27C80101960E946E
:102DC000CE309E01282BC901DF91CF911F910F9129
:102DD00008950F931F93CF93DF93122F032F0E9419
:102DE000C016EC01602F0E94E230612FCE010196E7
:102DF000DF91CF911F910F910C94E230AF92BF926F
:102E0000CF92DF92EF92FF921F93CF93DF938CEAE2
:102E1000C82E80E0D82ED0E07601C0E014C0F501C5
:102E200025913491412F6C2F8D2F0E94E91682E05D
:102E3000A80EB11C1F5F113191F782E2E80EF11C60
:102E4000CF5FC63019F0570110E0E9CFDF5F8CEC9F
:102E5000C80ED11CD43001F7DF91CF911F91FF90A4
:102E6000EF90DF90CF90BF90AF900895EF92FF92D8
:102E70000F931F93CF93DF93EC018A017C01E60E41
:102E8000F71ECE018796CE15DF0539F4DF91CF917D
:102E90001F910F91FF90EF900895C03323E0D20768
:102EA00040F40E94CE30F80180830F5F1F4F2196BF
:102EB000E8CFF8011082F9CFCF92DF92EF92FF9224
:102EC0000F931F93CF93DF937C016A018C01060F50
:102ED000171FEC01CE018796C017D10749F4DF9187
:102EE000CF911F910F91FF90EF90DF90CF900895B9
:102EF000C03323E0D20740F4FE01EE19FF09EC0DC8
:102F0000FD1D60810E94E2302196E4CF462F84307F
:102F100038F4763028F4613118F4672F0C94D01609
:102F200090E080E0089580E1089589EA90E00895B6
:102F3000EF92FF920F931F93CF93DF93EC018A01DF
:102F40007C01E60EF71ECE01895A9C4FCE15DF0597
:102F500039F4DF91CF911F910F91FF90EF90089579
:102F6000C93AD10540F40E94CE30F80180830F5F4A
:102F70001F4F2196E8CFF8011082F9CFCF92DF9250
:102F8000EF92FF920F931F93CF93DF937C016A011F
:102F90008C01060F171FEC01CE01895A9C4FC017F8
:102FA000D10749F4DF91CF911F910F91FF90EF90DE
:102FB000DF90CF900895C93AD10540F4FE01EE1993
:102FC000FF09EC0DFD1D60810E94E2302196E4CFE7
:102FD000CF93DF93C7E5D3E060E0CE010E94E230FB
:102FE0002196C11584E0D807B9F7DF91CF910895F4
:102FF000DF92EF92FF920F931F93CF93DF9300D056
:1030000000D0CDB7DEB7F82E8FE08F1540F08FEFF0
:1030100093E00E94CE3007E513E08823C1F00F90C3
:103020000F900F900F90DF91CF911F910F91FF9014
:10303000EF90DF900895011584E0180781F3C8012F
:103040000E94CE30811101C0FA940F5F1F4FF11022
:10305000F2CF19821A821B821C82DD24D39478015C
:103060008FEFE81AF80AC8010E94CE3089831A82CD
:103070008823A9F29FEF980F933078F48A83D9823E
:103080000E5F1F4FC7010E94CE308B83882339F219
:10309000CE0101960E949406E2CF8701F9CF0F93EB
:1030A0001F93CF93DF93C42FD22FFC0182818823FB
:1030B000C9F04093B6020E94E0279093B502809336
:1030C000B40280E28C0F883008F050C0C77081E0F5
:1030D00001C0880FCA95EAF7DF91CF911F910F9138
:1030E0000C94181D1091B602141335C08091B402CF
:1030F0009091B5020E94F827883C910560F5C0E2E6
:10310000CD0F1D17B9F080E2810F883040F41770A1
:1031100081E001C0880F1A95EAF70E941F1DC83090
:1031200048F481E09D2F977001C0880F9A95EAF7C7
:103130000E94181D802F0E94101DC830B8F4D7704F
:1031400081E001C0880FDA95EAF7DF91CF911F91F6
:103150000F910C941F1D80E28C0F883038F4C770DB
:1031600081E001C0880FCA95EAF7EFCFDF91CF91D8
:103170001F910F9108950F939C01CB01233F4CE5C4
:10318000340759F1A8F4283DFCE53F0701F1293D3A
:103190004CE53407D1F1273D3C4591F406E221EEA0
:1031A00041EE67ED7CE50E944F1880E00F91089595
:1031B000253FFCE53F07E9F0B0F0263F3C45F9F03C
:1031C000FC018281882339F11092B602EFCF07E229
:1031D00025EE45EE68ED7CE5E6CF06E221EE40EE19
:1031E00063EF7CE5E0CF07E225EE44EE64EF7CE59B
:1031F000DACF06E221EE42EE65EF7CE5D4CF07E2BE
:1032000025EE46EE66EF7CE5CECF08E221E045EE06
:1032100069ED7CE5C8CF81E0C9CFCF93DF93EC01A6
:10322000FB018281882309F419C1C230FCE5DF0764
:10323000C0F1C6319CE5D90730F09E012A5F3C45BC
:103240002930310570F50E9409269093AB038093D5
:10325000AA03C031ECE5DE0709F4CFC008F05BC07B
:10326000C8308CE5D80709F4B6C088F5C430ECE561
:10327000DE0709F4A8C0C0F4C2308CE5D80709F411
:103280009CC08091AA038260C330DC4509F498C0D9
:103290008091AA039091AB030E9417260E94911F70
:1032A00080E0DF91CF9108958091AA038061C630BC
:1032B000ECE5DE0709F484C08091AA038860C7307A
:1032C000DC4508F47DC08091AA03806279C0CC30CF
:1032D0008CE5D80709F489C070F48091AA038C604A
:1032E000CA30ECE5DE0709F46BC008F478C08091C1
:1032F000AA038E7F65C0CE308CE5D80709F479C06B
:103300008091AA038B7FCF30DC4508F459C08091AF
:10331000AA038F7E55C0CB3FECE5DE0709F457C00A
:1033200030F5C3318CE5D80709F46FC078F4C131AA
:10333000ECE5DE0709F465C0C231DC4509F0A8CF31
:103340000E94911F8091AA038F773AC0C5318CE506
:10335000D80709F462C008F476C08091AB0381609D
:10336000CA3FDC4509F094CF8093AB0391CFCF3FA8
:10337000FCE5DF0709F44DC088F48091AB038D7F35
:10338000CD3F9CE5D90781F38091AB038E7FCE3F83
:10339000DC4550F38091AB038360E6CFC130FDE59F
:1033A000DF0709F459C008F444C080E0C230DD45AD
:1033B00009F06ECF0E9496266BCF8091AA038160A0
:1033C0008093AA0365CF8091AA038460F9CF80918E
:1033D000AB038260C9CF8091AA038064F1CF0E94C1
:1033E000911F8091AA038068EBCF8091AA038D7F03
:1033F000E7CF8091AA03877FE3CF8091AA038F7DD7
:10340000DFCF8091AA038F7BDBCF8091AA03837FDC
:10341000D7CF8091AB038C7FA7CF8091AA0382FB8B
:10342000992790F921E0922790FB82F990FB83F98C
:10343000C7CF8091AB03982F909591708E7F892B89
:1034400090FB81F991CF0E94911F9091AA03892F3F
:1034500097FB87F98058B4CF81E0ACCF81E021CFD2
:10346000CF93DF93EB0186319C4511F50E94312506
:103470009A81992399F08A7A91E009F490E09093E7
:10348000B702811109C089E20E94EB240E948125C4
:1034900080E0DF91CF91089585E3F6CF8091B70268
:1034A000811104C089E20E94F224F0CF85E3FBCFB2
:1034B00081E0EFCF9093BD028093BC020895E0912C
:1034C000BC02F091BD02309721F00190F081E02D17
:1034D000099480E00895E091BC02F091BD0230971C
:1034E00099F020912B01222359F02091AA0327FF64
:1034F00007C0DC012C9111962C93119725E02C9399
:103500000280F381E02D09940895E091BC02F091CE
:10351000BD02309739F022E0DC012C930480F58164
:10352000E02D099408952091BA023091BB0228172A
:10353000390771F09093BB028093BA02E091BC020C
:10354000F091BD02309721F00680F781E02D0994BB
:1035500008952091B8023091B9022817390771F007
:103560009093B9028093B802E091BC02F091BD0241
:10357000309721F00084F185E02D099408950E9490
:10358000EC276093DB027093DC028093DD02909362
:10359000DE026093D7027093D8028093D902909391
:1035A000DA02089585B7806885BF85B7806885BFD2
:1035B0000895089508950C94D91A08950C94DD1A6D
:1035C0000E94D21A8EEE95E20E944F280E94DA1ACB
:1035D0000C94DB1A81E008950C94EA1A089508957A
:1035E0000E94EE1A0C94EF1A0E94D7270E94060937
:1035F0000E9459150E941A130C94DE1A4F925F9282
:103600006F927F928F929F92AF92BF92CF92DF92F2
:10361000EF92FF920F931F93CF93DF93CDB7DEB757
:103620002A970FB6F894DEBF0FBECDBF0E943F09A8
:1036300081110E94BF1A5FEBA52E52E0B52E10E05B
:1036400000E0802E802F0E94DB082B013C01F50159
:10365000C190D190E190F1905F01C414D504E604CB
:10366000F70409F479C08091860381FD0E94E60881
:10367000D701C60184259525A625B725912CC12CF7
:10368000D12C7601C394AC01BD014C215D216E218A
:103690007F21452B462B472B09F456C00E94EC1A7C
:1036A0008823C9F09E828F824C205D206E207F206F
:1036B00081E045284628472809F480E088870E9451
:1036C000E0278160782F9A8789874E815F8168859E
:1036D0008A850E94DA1B000F111F000F111FF801CD
:1036E000E154FD4F80819181A281B3818C259D257C
:1036F000AE25BF2580839183A283B3830E945E138E
:103700000E948C0B0E945F1A9091BE028917D9F11A
:103710000E945F1A8093BE022A960FB6F894DEBF0D
:103720000FBECDBFDF91CF911F910F91FF90EF9012
:10373000DF90CF90BF90AF909F908F907F906F90D1
:103740005F904F900C949A069394CC0CDD1CEE1C69
:10375000FF1CF1E19F1297CF0F5F1F4F063011053D
:1037600009F06FCF8FEF89838A831B820E94E02745
:103770008160782F9D838C8349815A816B818D81F3
:103780000E94DA1BBBCF2A960FB6F894DEBF0FBE9D
:10379000CDBFDF91CF911F910F91FF90EF90DF9000
:1037A000CF90BF90AF909F908F907F906F905F90E1
:1037B0004F900895DF92EF92FF920F931F93CF9354
:1037C000DF93CDB7DEB72B970FB6F894DEBF0FBEF1
:1037D000CDBF7A878B87F42E052F162FE72ED82E94
:1037E00061110E9451251E821D827E2DEC82DD8298
:1037F0004F2D502F612F8D2D9E812B960FB6F89453
:10380000DEBF0FBECDBFDF91CF911F910F91FF9013
:10381000EF90DF900C940722FC01808191810C9441
:10382000BD24CF93C82F882309F48BC08238C1F4FC
:103830000E945F1A81FD85C089E30E94EB240E94EB
:1038400081252FEF81EE94E0215080409040E1F7F8
:1038500000C0000089E30E94F224CF910C948125DE
:103860008338A1F40E945F1A80FD6BC083E50E943B
:10387000EB240E9481252FEF81EE94E021508040BF
:103880009040E1F700C0000083E5E5CF8438A1F463
:103890000E945F1A82FD55C087E40E94EB240E94BB
:1038A00081252FEF81EE94E0215080409040E1F798
:1038B00000C0000087E4CFCF8CEF8C0F813A90F4EA
:1038C0006C2F80911F01909120010E94AF268823C8
:1038D00029F08C2F0E94F2240E9481258C2F0E94B7
:1038E000EB24BBCF80E28C0F883048F4C77081E0B6
:1038F00001C0880FCA95EAF70E943425AECFEBE5E8
:10390000EC0FE33040F4F0E0E353FE4F808190E0B1
:10391000CF910C94931AE8E5EC0FE73150F4F0E006
:10392000EE0FFF1FE156FE4F80819181CF910C94E5
:10393000A91AC03F30F08C2F0E949E0ACF910C94A0
:10394000710BCF910895882309F452C0823871F425
:103950000E945F1A81FF4CC089E30E94EB240E9401
:10396000812589E30E94F2240C948125833859F43F
:103970000E945F1A80FF3CC083E50E94EB240E94F6
:10398000812583E5EFCF843859F40E945F1A82FFC6
:103990002FC087E40E94EB240E94812587E4E2CFB8
:1039A0009CEF980F913AF0F290E2980F983050F413
:1039B000877091E001C0990F8A95EAF7892F0E94DC
:1039C0003A25D2CF9BE5980F933020F490E080E029
:1039D0000C94931A98E5980F973120F490E080E0CA
:1039E0000C94A91A803F20F00E94F80A0C94710BE5
:1039F00008951F93CF93DF93182FEB010E94111CA2
:103A0000209731F4812FDF91CF911F910C94A31C4B
:103A10008FE99FE00197F1F700C000002197F0CFF8
:103A200070E060E0893311F460E570E00C94F91CFB
:103A3000882321F00E9434250C9481250895882341
:103A400021F00E943A250C9481250895BF92CF92CF
:103A5000DF92EF92FF920F931F93CF93DF936C014E
:103A6000D62FC72FFC011281058102950F700E948D
:103A70000925E82E8823A1F0E12E112389F08C2F4F
:103A8000807F803429F080E28D0FE12C883040F077
:103A900082E00E94D2250E94092591E0E82EE926C5
:103AA000BC2EB2949FE0B922EB2DF0E0E65BFE4C19
:103AB0000C9427300C2F0F70C07F11F00295007FFF
:103AC0001123A9F0002359F080E28D0F883010F007
:103AD000D11109C0802F0E9434250E9481258D2F8D
:103AE0000E94111C14C0802F0E944425F6CF8D2FF8
:103AF0000E94A31C002359F080E28D0F883010F043
:103B0000D1112CC0802F0E943A250E9481252B2D97
:103B10002850330B2430310520F40E945F1A0E9494
:103B20009A06EE2009F49EC10E94052580FD9AC1E7
:103B3000F60112820E94FF240E948B23C6010E947C
:103B4000531F0E94FF24DF91CF911F910F91FF908F
:103B5000EF90DF90CF90BF900C94AC23802F0E9409
:103B60004A25D3CFFC2FFF70FF2EC07FC03219F043
:103B7000F29480EFF822DD2369F0D13049F111236E
:103B800091F1002351F1F601858180FFA8CF8F705C
:103B9000858323C0112381F0011106C00E94642592
:103BA0008F290E94181DB3CF0130C1F70E946425F0
:103BB0008F290E946A25ABCF011106C00E9477258C
:103BC0008F2D0E941F1DA3CF013009F4A0CFF6CF87
:103BD000112329F0063008F09ACF8F2DE2CF05305F
:103BE00008F095CFEDCF002359F3D93349F4FFEF17
:103BF00027EE33E0F15020403040E1F700C00000F4
:103C00008D2F0E94A31C83CF8C2F86958695837061
:103C100069F0813009F07BCF8D2F9C2F93701111AB
:103C200002C090E080E00E94A91A71CF8D2F9C2FD6
:103C30009370111102C090E080E00E94931A67CF48
:103C40008D2F112329F00E949E0A0E94710B5FCFD5
:103C50000E94F80AFACF8C2F837009F041C011112D
:103C600056CF4D2F429546954770440F440F0D2F68
:103C70000F7010E030E020E0042E04C0000F111F90
:103C8000221F331F0A94D2F760E070E0CB01D4FF0B
:103C90000FC06FE070E080E090E004C0660F771F17
:103CA000881F991F4A95D2F76095709580959095D9
:103CB000C695C695C370602B712B822B932BC23097
:103CC00049F058F4C13019F00E943D2320CF0E94E2
:103CD0002B231DCF0E944F231ACF0E94292317CFD9
:103CE0008695112311F08C2F8170882309F40FCF52
:103CF0004D2F429546954770440F440F0D2F0F707E
:103D000010E030E020E0042E04C0000F111F221F3D
:103D1000331F0A94D2F760E070E0CB01D4FF0FC0EC
:103D20006FE070E080E090E004C0660F771F881FAE
:103D3000991F4A95D2F76095709580959095C69594
:103D4000C695C370602B712B822B932BC23049F028
:103D500058F4C13019F00E940224D9CE0E94F023F9
:103D6000D6CE0E941424D3CE0E946523D0CECF702D
:103D7000112329F08C2F0E948B238D2F12CF8D2F92
:103D80000E941F1D8C2F0E94AC23C1CED23F89F10F
:103D900060F4D03FC9F0D13F29F1112309F442C0AA
:103DA00001119DCE8C2F8F7121C0D33F39F1D43FAB
:103DB000A1F7112369F1CF718C2F0E948B2363E04F
:103DC0008C2F0E94B725A3CE112341F0053008F0B7
:103DD0009ECE8C2F8F710E94CF2399CE063008F093
:103DE00096CEF7CF8C2F8F71112369F20E948B230F
:103DF0008ECE8C2F8F711123C9F3C5CF112329F0DB
:103E00008C2F8F710E94762382CE0E9471237FCEE9
:103E100081E00E94D225023008F479CE82E00E942F
:103E2000D22575CE002359F0D93309F0E9CE8FEFB2
:103E300097EEE3E081509040E040E1F7DFCE8C2F39
:103E40008F71A1CF4C2F4F706D2FC6010E94A2061B
:103E50000E94A1225CCE4C2F4F706D2FC6010E9494
:103E6000A50655CEDF91CF911F910F91FF90EF9056
:103E7000DF90CF90BF9008950F931F93CF93DF9360
:103E8000EC01688179818A810E94C7248C010E949B
:103E900026240E942823B801CE01DF91CF911F91E3
:103EA0000F910C94261DCF93DF93EC018B819C81A5
:103EB000892B29F08881998189238F3F59F4DF91DB
:103EC000CF910895CE010E943C1FCE01DF91CF918A
:103ED0000C94E004CE010E9467058111F3CF0E948B
:103EE0000925882361F38A81882349F382E0DF91E1
:103EF000CF910C94D22590E080E00E94931A90E03C
:103F000080E00E94A91A0E9451250E9461250E940A
:103F100081250E94980C0C94710B0E94F9240C943A
:103F20007B1F0E9441250C948D1FE92FE295EF70B5
:103F3000E250EE3070F4F0E0E65AFE4C0C9427307C
:103F4000803F19F020F4883E20F481E00895843FFA
:103F5000E1F380E00895883EC0F3813FD1F7F5CFCB
:103F600093FB882780F908950E94BD240C94951F27
:103F7000CF93DF9300D000D00F92CDB7DEB70F9074
:103F80000F900F900F900F90DF91CF910895CF93E6
:103F9000DF9300D000D000D0CDB7DEB726960FB6A5
:103FA000F894DEBF0FBECDBFDF91CF9108951F9370
:103FB000CF93DF93C091E00216E08091E1028C1371
:103FC00004C0DF91CF911F910895D0E01C9FF001B4
:103FD0001D9FF00D1124EE51FD4F408151816281F2
:103FE0007381848195810E94C71F2196C770E5CF98
:103FF00040911203509113036091140370911503C3
:1040000080911603909117030C94C71F1F93CF93B1
:10401000DF9380911703807FA9F480911403882394
:1040200089F08091E002C091E102609112037091E9
:104030001303A0911503B0911603D62FD72316E0D2
:10404000C81304C0DF91CF911F91089590E010979D
:1040500011F0DF3F19F401968770F2CF189F90019D
:10406000199F300D1124F901EE51FD4F4181471385
:10407000F2CF40814613EFCF42814111ECCF438113
:1040800054814A1B5B0B483C510528F7809117036C
:104090008F70806180931703F901E951FD4F808192
:1040A0008F708061808382E193E00E94531FDF91D3
:1040B000CF911F910C94D71FAF92BF92CF92DF92F6
:1040C000EF92FF920F931F93CF93DF93CDB7DEB79D
:1040D00061970FB6F894DEBF0FBECDBF8C0185E0AF
:1040E000F801DE011D9601900D928A95E1F7F80125
:1040F00040815181E28082E1C82E83E0D82E609118
:104100001503709116036115710509F461C1909151
:10411000120320911303892F82238F3F09F458C182
:10412000A380B480F0901403F501E61BF70BFF2089
:1041300009F4FCC080911703382F307FE83CF1056B
:1041400008F0B2C0311179C0FE2C251323C094139E
:1041500021C0E1101FC08F708061809317030E94FF
:10416000F81FC6010E94531F80911703F801858331
:104170008F2D61960FB6F894DEBF0FBECDBFDF91D5
:10418000CF911F910F91FF90EF90DF90CF90BF9054
:10419000AF900895AB2829F0842F85238F3F09F035
:1041A00033C180E0F82FF170DF2E80FF3CC080919A
:1041B000E0022091E10236E0821315C04D875E8750
:1041C0008D859E850E94BD24292F22952F70223037
:1041D000F0F0243018F59F70F1F0F8019581907F90
:1041E000D1F4D12C1EC090E0389FF001399FF00D22
:1041F0001124EE51FD4F6181651306C06081641387
:1042000003C062816E110FC001968770D5CF9F7079
:1042100011F0882331F3805E883018F3C8010E94C2
:10422000531FFD2CA5CFEE2009F4A2CF80911703D8
:10423000816080931703F12C9BCF251306C0941344
:1042400004C0F801EE2009F48DC04D875E878D858E
:104250009E850E94B41F882319F1EE2009F18091F8
:104260001703803270F020911203309113033887C6
:104270002F831986BB86AA868C87CE0107960E945B
:10428000531F86E0F801A2E1B3E001900D928A95F8
:10429000E1F70E9406200E94F81FFF24F39468CFE4
:1042A000C8010E94531FF9CF311113C07A2DB98A6A
:1042B000A88A6E2D89890E94B81F82E193E00E942E
:1042C000531F86E0F60111928A95E9F70E94F81FC4
:1042D000B2CF25130FC094130DC0E1100BC0F8012D
:1042E0008583C8010E94531F86E0F60111928A95CA
:1042F000E9F73ECF4D875E878D859E850E94B41F6E
:10430000882371F2EE2061F280911703803208F465
:10431000B8CF20911203309113033A8329831B8273
:10432000BD82AC828E83CE010196A9CFE83CF10517
:1043300008F041C0FE2CEE2009F4B2CF25132AC0AC
:10434000941328C08091170380FD1BC0982F907F85
:10435000C1F0F8018583903F31F0982F907F905FF6
:104360008F70892B8583C8010E94531F86E0F80156
:10437000A2E1B3E001900D928A95E1F70E94F81F47
:10438000F7CE86E0F801A2E1B3E001900D928A95A4
:10439000E1F7EECE4D875E878D859E850E94B41F26
:1043A00081116FCF80911703816080931703C8013B
:1043B0000E94531FDDCE7A2DB98AA88A6E2D898975
:1043C0000E94B81F86E0F60111928A95E9F7D6CFD0
:1043D000EE2009F465CF4D875E878D859E850E940E
:1043E000B41FF82E882309F45BCF86E0F801A2E120
:1043F000B3E001900D928A95E1F782E193E00E948B
:104400000C1C0E940620BACF81E08E25CBCE1F93D4
:10441000CF93DF93CDB7DEB72C970FB6F894DEBFFE
:104420000FBECDBF4F83588769877A878B879C875C
:10443000CE0107960E945C20882369F08A859B85BF
:10444000892B39F04F815885842F85238F3F09F0C0
:1044500071C016E05FC086E0FE013796DE0111965E
:1044600001900D928A95E1F78A859B85892B89F3C6
:104470008F81988589238F3F61F32091E10230E09D
:10448000C9010196877099274091E00248171906E3
:1044900071F40E94911F1092E1021092E00286E0F6
:1044A000E2E1F3E0DF011D928A95E9F7D2CF96E0D1
:1044B000929FD001939FB00D1124AE51BD4FFE01CC
:1044C000319601900D929A95E1F78093E1020E9456
:1044D000D71FBFCF819FC00111248E519D4F0E94D5
:1044E0005C208823E9F0E091E0021E9FF001112496
:1044F000EE51FD4F408151816281738184819581AC
:104500000E94C71F8091E00290E001968770992772
:104510008093E0028091E0029091E1028913DACF6A
:104520002C960FB6F894DEBF0FBECDBFDF91CF91B2
:104530001F91089569857A858B859C850E94C71F88
:1045400088CFEF92FF920F931F93CF93DF938C014D
:10455000892B81F0F12CEE24E394E8012196F801F7
:104560008491843770F4843008F05FC08130B1F0FA
:104570008230A1F1DF91CF911F910F91FF90EF90C9
:104580000895853709F44CC008F43DC09CE7980FA6
:10459000903780F78F770E94A31C49C00E5F1F4F92
:1045A000FE01849190E2980F983060F48770FE2DA0
:1045B00001C0FF0F8A95EAF78F2F0E9454250E94B1
:1045C000812502C00E94111C8F2D815030F2EFE92D
:1045D000FFE03197F1F700C00000F7CF0E5F1F4FEB
:1045E000FE01849190E2980F983050F48770FE2D70
:1045F00001C0FF0F8A95EAF78F2F0E945A25DFCF5F
:104600000E94A31CE1CF0E5F1F4FFE01C491C15059
:10461000D8F28FE99FE00197F1F700C00000F7CFD3
:104620000E5F1F4FFE01F490CFCF0E94111C8E0130
:10463000CBCF08950C9419230E941A2360935D0335
:1046400070935E0380935F03909360030C947B1FD1
:1046500008950C941C230F931F9300915D031091F8
:104660005E0320915F0330916003602B712B822BDE
:10467000932B1F910F910C941C230F931F93009168
:104680005D0310915E0320915F033091600360230E
:104690007123822393231F910F910C941C230F935A
:1046A0001F9300915D0310915E0320915F03309191
:1046B000600360277127822793271F910F910C9425
:1046C0001C230C9419230C9461230E946323609390
:1046D000590370935A0380935B0390935C030C948B
:1046E0007B1F60E070E0CB010C9465230F931F9358
:1046F00041E050E060E070E08A019B0104C0000FDF
:10470000111F221F331F8A95D2F7C901B8011F91CB
:104710000F910C9465230F931F9341E050E060E0EC
:1047200070E004C0440F551F661F771F8A95D2F7AB
:104730008091590390915A03A0915B03B0915C035F
:104740008A019B01082B192B2A2B3B2BC901B8018D
:104750001F910F910C9465230F931F9341E050E03C
:1047600060E070E004C0440F551F661F771F8A95F4
:10477000D2F7CB01BA016095709580959095009124
:10478000590310915A0320915B0330915C0360231D
:104790007123822393231F910F910C9465230F9310
:1047A0001F9341E050E060E070E004C0440F551FEB
:1047B000661F771F8A95D2F78091590390915A030B
:1047C000A0915B03B0915C038A019B010827192724
:1047D0002A273B27C901B8011F910F910C9465232B
:1047E0000F931F930091590310915A0320915B037B
:1047F00030915C03602B712B822B932B1F910F91B7
:104800000C9465230F931F930091590310915A0341
:1048100020915B0330915C036023712382239323F7
:104820001F910F910C9465230F931F9300915903CF
:1048300010915A0320915B0330915C03602771272C
:10484000822793271F910F910C946523089521E1EE
:10485000929F800D1124982F977041E001C0440F62
:104860009A95EAF786958695869595E0899FF00159
:104870001124E85EFC4F90E080E070E05191DF0190
:1048800011979B01082E02C0369527950A94E2F7EE
:10489000217021952527242325272C9301968530E7
:1048A000910561F7089521E1929F800D1124982FC1
:1048B000977086958695869525E0829FF001112454
:1048C000E85EFC4F50E040E080E0219130E0092EAE
:1048D00002C0369527950A94E2F721703327042EFB
:1048E00001C0220F0A94EAF7822B4F5F5F4F4530D9
:1048F000510559F70895BF92CF92DF92EF92FF9240
:104900000F931F93CF93DF938C01C0905903D090E6
:104910005A03E0905B03F0905C0380915D039091FB
:104920005E03A0915F03B0916003C82AD92AEA2AE6
:10493000FB2ACFE1D0E0BC2ED701C6010C2E04C06B
:10494000B695A795979587950A94D2F780FD0EC0E6
:10495000219788F7B12C8B2DDF91CF911F910F916B
:10496000FF90EF90DF90CF90BF900895B8018C2F0B
:104970000E94AE06019761F3EECFCF93DF93EC0177
:104980000E947B24BE01DF91CF910C94AE061F9351
:10499000CF93DF93EB019091DF02992331F0CB01AC
:1049A000DF91CF911F910C94BD24882379F0CB0126
:1049B0000E947B24182F682FCE010E942724BE015D
:1049C000812FDF91CF911F910C94AE06CB010E94F5
:1049D0005324182FF4CF682F80911F01909120014C
:1049E0000C942F27682F80911F01909120010C9427
:1049F0003A2780911F01909120010C9445278091C6
:104A000061038595859585950895809161038770EB
:104A1000089590916103977081E009F480E0089512
:104A20009091AB0392FB222720F9281751F080FBCD
:104A300092F99093AB038091AA039091AB030C94ED
:104A4000172608958091AB0382FB882780F991E0B7
:104A500089270C94102581E00C94102580E00C949B
:104A6000102580918503089590918503892B80936B
:104A700085030895809590918503982390938503ED
:104A8000089510928503089590918403892B809353
:104A900084030895809590918403982390938403D0
:104AA000089510928403089590918303892B809335
:104AB00083030895809590918303982390938303B3
:104AC00008951092830308958091620308950895D4
:104AD0000C9467259091AB0392FD08C090916203FE
:104AE000981721F0809362030C94682508958091B3
:104AF0006203882329F01092620380E00C946825F9
:104B00000895E0911F01F091200180918503808339
:104B1000E0911F01F0912001808190918403892B05
:104B20008083E0911F01F0912001808190918303A7
:104B3000892B808390916203992381F0E0911F017A
:104B4000F09120018081892B808380911F019091B9
:104B500020010E949B2681110E94772580911F01D0
:104B6000909120010C946B1A08950C94B4259091A7
:104B7000AB0392FD10C098E0899F90011124622B35
:104B8000609361030E948B238091610385958595D5
:104B900085950C94B5250C948B231092610380E0CD
:104BA0000C94B525909161038095892380936103CE
:104BB000282F277039F4282F082E000C330B92175A
:104BC000130621F49091AB0392FF07C0859585955C
:104BD00085950E94AC230C94CD25089580E008951E
:104BE0006FEF7FEF90E080E00C94003190E080E088
:104BF0000E94DC3021E08A3E9E4F09F020E0822FA7
:104C0000089582E090E00C94CE3083E090E00C9424
:104C1000CE30CF9384E090E00E94CE30C82F82E265
:104C200090E00E94CE30982F8C2FCF910895CF9393
:104C3000C92F682F84E090E00E94E2306C2F82E25E
:104C400090E0CF910C94E230AB01BC018FE090E09A
:104C50000C94F430AB01BC0183E190E00C94F4308F
:104C600060E070E0CB010C942A266AEE7EEF90E0C3
:104C700080E00E94003160E082E090E00E94E2303B
:104C800060E083E090E00E94E23010925D031092B9
:104C90005E0310925F031092600360E084E090E096
:104CA0000E94E23060E082E290E00E94E23060E048
:104CB00085E090E00E94E23060E086E090E00E94B3
:104CC000E2306FEF87E090E00E94E23040E050E099
:104CD000BA0188E090E00E94F43060E08DE090E05E
:104CE0000E94E23040E050E0BA0188E190E00E948A
:104CF000F43060E087E190E00E94E23040E050E074
:104D0000BA018CE190E00E94F43070E060E080E253
:104D100090E00E94003140E050E0BA0188E190E06C
:104D20000E94F4300C948C040C943526682F8EE08D
:104D300090E00C94E230FC01329680912B018823A4
:104D400021F08091AA039EE187FF96E080E09150D8
:104D500008F4089521912223D1F38F5FF8CF6623C1
:104D600001F120912B012223F1F02091AA0327FFCA
:104D70001AC0462F4695469546954E3190F4677079
:104D800021E030E002C0220F331F6A95E2F7840F62
:104D9000911DFC01828190E02823392381E0232B9F
:104DA00069F480E00895FC01329608962191261757
:104DB00021F0E817F907D1F7F4CF81E008959C01BD
:104DC000FC0132969FEF80E04191461751F09F3FE2
:104DD00019F4411101C0982F8F5F8630A9F79F3FCA
:104DE00009F40895290F311D97FD3A95F901628361
:104DF0000895FC01329608962191261303C0DF0125
:104E000011971C92E817F907B9F70895E62FE69570
:104E1000E695E695EE3168F4E80FF92FF11D67701D
:104E200021E030E001C0220F6A95EAF78281822BEF
:104E300082830895E62FE695E695E695EE3170F4C7
:104E4000E80FF92FF11D677021E030E001C0220F5B
:104E50006A95EAF72095828128232283089520917C
:104E60002B01222329F02091AA0327FD0C94062769
:104E70000C94DF2620912B01222329F02091AA03F4
:104E800027FD0C941A270C94F926FC013296809188
:104E90002B01882351F08091AA0387FF06C08EE181
:104EA000DF011D928A95E9F7089586E0F9CF08950C
:104EB00008950C94582780915504843059F10E942C
:104EC000592780E00E949A060E9489121092870357
:104ED00088E190E020E40FB6F894A89580936000F4
:104EE0000FBE2093600083B7817F846083BF83B748
:104EF000816083BF7894889583B78E7F83BF0FB618
:104F0000F894A89580916000886180936000109269
:104F100060000FBE08950895CF930E9457270E9406
:104F20003F090E948B27C0E08C2F0E94DB08672B73
:104F3000682B692B31F4CF5FC630B1F780E0CF9199
:104F4000089581E0FCCF08950C94A3270E94911F3F
:104F50000E945F1A0E949A060E9455130C94A4277F
:104F60001F921FB61F9211248F939F93AF93BF93ED
:104F700080918703811113C080914D0490914E045C
:104F8000A0914F04B09150044196A11DB11D809392
:104F90004D0490934E04A0934F04B0935004BF91DE
:104FA000AF919F918F911F901FBE1F90189582E027
:104FB00084BD93E095BD9AEF97BD80936E000895F0
:104FC0002FB7F89480914D0490914E04A0914F0416
:104FD000B09150042FBF08952FB7F89460914D04FD
:104FE00070914E0480914F04909150042FBF08950A
:104FF0009C014FB7F89480914D0490914E04A0917C
:105000004F04B09150044FBF821B930B08957894C6
:105010001F921FB61F9211248F939F93AF93BF933C
:1050200080914D0490914E04A0914F04B091500492
:105030000196A11DB11D80934D0490934E04A09341
:105040004F04B0935004BF91AF919F918F911F90E7
:105050001FBE1F90189581E08093E00080E280934E
:10506000D8001092C9008FE19EE40197F1F700C0CB
:10507000000087E090EBDC0180935E0490935F0476
:10508000A0936004B093610488E19CE00FB6F894AB
:10509000A895809360000FBE90936000FFCF90931F
:1050A000E1018093E00108958091A8030895CF93D2
:1050B000DF9300D00F92CDB7DEB7909155049430B6
:1050C00011F589837B836A839093E9008FEF909138
:1050D000E800815095FD06C095ED9A95F1F7000026
:1050E0008111F5CF8091E80085FF0DC050E040E0D0
:1050F00063E070E0CE0101960E94E32A8091E8000F
:105100008E778093E8000F900F900F90DF91CF91F2
:105110000895BC0184E00C945728BC0183E00C94F2
:1051200057289C0184E08093E9009FEF8091E8007C
:10513000915085FD06C085ED8A95F1F7000091112B
:10514000F5CF8091E80085FF0CC050E040E066E0BC
:1051500070E0C9010E94E32A8091E8008E77809375
:10516000E8000895CF93DF93EC0180912B01882311
:10517000B1F18091AA0387FF32C060E284E080939E
:10518000E9008FEF9091E800815095FD06C095ED04
:105190009A95F1F700008111F5CF8091E80085FF25
:1051A0001BC080912B0170E050E040E0811104C0F1
:1051B00050E040E068E070E0CE010E94E32A809178
:1051C000E8008E778093E80080E2FE01A8E8B3E073
:1051D00001900D928A95E1F7DF91CF91089568E0F3
:1051E00081E0CDCFCF93FC01603221F58091550451
:1051F000843001F5C091E900CF702091EC00922F2E
:10520000917020FD90E8C92B82E08093E9008091A5
:10521000E80080FF0CC050E040E060E270E0CF01A9
:105220000E94E32A8091E8008E778093E800CF7097
:10523000C093E900CF91089580915404811109C071
:105240000E94C22C0E941F2D8091E20084608093F6
:10525000E200089510925404089508950895089561
:1052600042E061EC81E00E943E2C42E261EC84E08D
:105270000E943E2C42E261EC82E00E943E2C42E21F
:1052800060EC83E00C943E2C80915704833009F449
:1052900061C030F48130D1F1823009F49DC00895AD
:1052A0008A3009F489C08B3009F46FC0893009F065
:1052B00050C080915604813209F04BC080915A044D
:1052C00090915B04009719F0029709F042C0809119
:1052D000E800877F8093E8008091E80082FF35C076
:1052E0009091F3008091F200029729F48091F100EF
:1052F0008B7F813021F48091F1008093A80380910D
:10530000E8008B778093E8000C94722C809156040F
:10531000813AF9F48091E800877F8093E8008091DA
:105320005A0490915B04892B61F460E288E893E071
:1053300070E00E94812B8091E8008B778093E800D9
:10534000089560E090E080E0F3CF809155048111F2
:10535000C3CF089580915604813AD9F780915A04B9
:1053600090915B04892BA9F78091E800877F809357
:10537000E8008091E80080FFFCCF80912B018093B2
:10538000F1008091E8008E77BDCF80915604813284
:1053900001F780915A0490915B04892BD1F680919A
:1053A000E800877F8093E8000E94722C8091580467
:1053B00080932B010C94911F80915604813249F601
:1053C0008091E800877F8093E8000E94722C809192
:1053D00059048093A903089580915604813A09F0F5
:1053E000B8CF8091E800877F8093E8008091E80043
:1053F00080FFFCCF8091A903C2CFCDB7DEB7A097C5
:105400000FB6F894DEBF0FBECDBF84B7877F84BFD1
:105410000FB6F894A8958091600088618093600031
:10542000109260000FBE80E890E00FB6F894809371
:105430006100909361000FBE0E94E01A0E94C22C8E
:105440000E941F2D8091E20084608093E200789496
:105450000E94A82F0E94F41A81E291E00E945A1A39
:1054600013E0809155048530B9F00E94FE1A8091B6
:1054700055048430C1F00E94F01AF3CF0E945B27DC
:1054800080915304882341F00E948C27882321F0C7
:105490000E94CD2A0E94911F80915504853071F39E
:1054A0000E94A627E2CF1093E9008091E80082FFD6
:1054B000E2CF8091E80090E085FF09C050E040E035
:1054C00060E270E0CE0101960E94322B91E0809163
:1054D000E8008B778093E800992369F260E2CE01BF
:1054E00001960E94FE15C7CF0C94762A292F3327E8
:1054F0002330310521F168F42130310509F443C02E
:105500002230310509F444C090E080E030E020E032
:1055100026C02132310551F122323105A9F763301D
:10552000710590F7FB01EE0FFF1FED52FE4F20813A
:10553000318160537E4FFB01808190E010C099273C
:105540008130910581F0009729F00297E9F6E6EAAB
:10555000F6E002C0E4ECF6E0849190E09F01FA01ED
:10556000318320830895ECEBF6E0F6CF63307105CC
:1055700058F6660F771FFB01E752FE4F20813181FD
:1055800089E090E0ECCF82E190E023E237E0E7CFE2
:105590008BE590E028EC36E0E2CF80E189BD82E146
:1055A00089BD09B400FEFDCF8091D8008F7D809326
:1055B000D8008091E00082608093E0008091E0005C
:1055C00081FDFCCF0895AF92BF92CF92DF92FF9200
:1055D0000F931F93CF93DF936C01EB018A010E941D
:1055E000912CF82E811123C00115110539F0F80115
:1055F00080819181C81BD90BC80ED91EB12CA12C5A
:105600002097A9F08091E80085FD22C08091E800F4
:105610008E778093E80001151105A1F0F8018081D3
:105620009181A80EB91EB182A08285E0F82E8F2D3F
:10563000DF91CF911F910F91FF90DF90CF90BF909E
:10564000AF9008950E94912C8823D1F2F82EEFCFCD
:10565000F60181916F018093F1002197FFEFAF1A5E
:10566000BF0ACECFAF92BF92CF92DF92FF920F933D
:105670001F93CF93DF936C01EB018A010E94912C61
:10568000F82E811123C00115110539F0F801808130
:105690009181C81BD90BC80ED91EB12CA12C209703
:1056A000A9F08091E80085FD22C08091E8008B7709
:1056B0008093E80001151105A1F0F8018081918126
:1056C000A80EB91EB182A08285E0F82E8F2DDF9141
:1056D000CF911F910F91FF90DF90CF90BF90AF902F
:1056E00008950E94912C8823D1F2F82EEFCF80915B
:1056F000F100F60181936F012197FFEFAF1ABF0A06
:10570000CECFFC0180915C0490915D0486179707D1
:10571000A0F06115710529F49091E8009E779093AF
:10572000E80090E06115710551F4911108C0809175
:10573000E80082FF34C080E00895BC01F2CF809180
:1057400055048823C1F18530C1F18091E80083FDC3
:1057500030C08091E80082FDEACF8091E80080FFB0
:10576000E1CF8091F3002091F200382F611571058F
:1057700019F02830310558F091E02830310509F052
:1057800090E02091E8002E772093E800CBCF819124
:105790008093F100615071092F5F3F4FE7CF8091F7
:1057A0005504882341F0853041F08091E80083FF63
:1057B000BECF81E0089582E0089583E00895FC0162
:1057C00080915C0490915D0486179707A0F06115A5
:1057D000710529F48091E8008E778093E80090E0CD
:1057E0006115710551F4911108C08091E80082FFA4
:1057F00035C080E00895BC01F2CF80915504882324
:10580000C9F18530C9F18091E80083FD31C08091F4
:10581000E80082FDEACF8091E80080FFE1CF80912F
:10582000F3002091F200382F6115710519F028302E
:10583000310558F091E02830310509F090E0809171
:10584000E8008E778093E800CBCF84918093F100BD
:105850003196615071092F5F3F4FE6CF809155041B
:10586000882341F0853041F08091E80083FFBDCF6F
:1058700081E0089582E0089583E00895982F97309D
:1058800028F08F708093E90081E008959093E900FB
:10589000242F762F50E0981731F07091EC00209172
:1058A000ED005091F00021FD02C09F5FE8CF3091E4
:1058B000EB003E7F3093EB003091ED003D7F309365
:1058C000ED003091EB0031603093EB007093EC0011
:1058D0002093ED005093F0002091EE0027FDE5CFDE
:1058E00080E008958091560487FF13C08091E800FE
:1058F00082FF06C08091E8008B778093E80004C0A7
:10590000809155048111F2CF089580915504882328
:10591000D9F38091E80080FFF8CF8091E8008E777E
:10592000ECCF2091E4003091E50095E6A9012091AB
:10593000EC00822F817020FF06C08091E80080FF7C
:1059400006C080E008952091E80022FD1AC08091F1
:105950005504882389F0853089F08091EB0085FD1E
:105960000FC02091E4003091E50042175307F9F28F
:105970009150E1F684E0089582E0089583E008956F
:1059800081E008950E94302D0E94382DE0EEF0E075
:10599000808181608083E8EDF0E080818F77808373
:1059A00019BCA7EDB0E08C918E7F8C9380818F7EA7
:1059B00080831092540408950F931F93CF93DF9325
:1059C0000E94302D0E94382DC8EDD0E088818F775D
:1059D000888388818068888388818F7D888319BCCB
:1059E00010925504109251041092530410925204D4
:1059F00000EE10E0F80180818B7F808388818160D8
:105A0000888342E060E080E00E943E2CE1EEF0E01E
:105A100080818E7F8083E2EEF0E0808181608083F0
:105A2000808188608083F80180818E7F8083888177
:105A300080618883DF91CF911F910F910895E8EDE8
:105A4000F0E080818F7E8083E7EDF0E080818160EF
:105A5000808384E082BF81E0809354040C94DC2C2A
:105A6000E8EDF0E080818E7F80831092E20008955F
:105A70001092DA001092E10008951F920F920FB673
:105A80000F9211242F933F934F935F936F937F93C4
:105A90008F939F93AF93BF93EF93FF938091E10018
:105AA00082FF0BC08091E20082FF07C08091E1007D
:105AB0008B7F8093E1000E94A72F8091DA0080FF06
:105AC00019C08091D80080FF15C08091DA008E7FC8
:105AD0008093DA008091D90080FF96C080E189BD73
