:100000000C9413060C944B060C944B060C944B0664
:100010000C944B060C944B060C944B060C944B061C
:100020000C944B060C944B060C94CB2E0C94A32FE3
:100030000C94802E0C944B060C944B060C944B069F
:100040000C944B060C944B060C944B060C944B06EC
:100050000C940E2E0C94A72E0C944B060C944B066D
:100060000C944B060C944B060C944B060C944B06CC
:100070000C944B060C944B060C944B060C944B06BC
:100080000C944B060C944B060C944B060C944B06AC
:100090000C944B060C944B060C944B060C944B069C
:1000A0000C944B060C944B060C944B06050109026C
:1000B000A10185020901A100050919012905150001
:1000C00025019505750181029501750381010501E1
:1000D000093009311581257F950275088106093897
:1000E0001581257F950175088106050C0A380215D2
:1000F00081257F950175088106C0C005010980A191
:1001000001850319012AB700150126B7009501756D
:10011000108100C0050C0901A101850419012AA064
:1001200002150126A002950175108100C005010984
:1001300006A1018506050719E029E71500250195A7
:1001400008750181020507190029EF1500250195A1
:10015000F0750181020508190129059505750191C0
:1001600002950175039101C00660FF0961A10109B3
:1001700062150026FF0095207508810209631500AD
:1001800026FF00952075089102C005010906A1010E
:10019000050719E029E71500250195087501810279
:1001A0009501750881010507190029FF150026FF33
:1001B0000095067508810005081901290595057542
:1001C000019102950175039101C009025B000301D1
:1001D00000A0FA0904000001030101000921110136
:1001E0000001224000070581030800010904010005
:1001F000020300000009211101000122220007056D
:100200008203200001070503032000010904020006
:10021000010300000009211101000122BC000705B3
:10022000840320000112010002000000087A6C0221
:10023000000100010203011C037600690061006CEB
:10024000003A00660036003400630032006200337A
:100250000063000000100365007200470068006F33
:100260000073007400000022034D00650063006805
:10027000006C006F00760069006E0020005300746F
:10028000007500640069006F000000040309042980
:10029000003A003B003C003D003E003F0040004172
:1002A0000042004300440045004C0046004700481F
:1002B0000035001E001F0020002100220023002422
:1002C000002500260027002D002E002A0049004AA4
:1002D000004B002B0014001A000800150017001C2A
:1002E0000018000C00120013002F00300031004CE9
:1002F000004D004E00390004001600070009000AF6
:10030000000B000D000E000F0033003400320028F7
:1003100000000000000000E10064001D001B00065A
:10032000001900050011001000360037003800E108
:1003300000E100000052000000E0000151E3000075
:1003400000E2002C002C0005002C002C00E600E749
:10035000000151E400500051004F00010001000174
:100360000001000100010001000100010001000185
:100370000001000100010001000100010001000175
:100380000001000100010001000100010001000165
:100390000001000100010001000100010001000155
:1003A0000001000100010001000100010001000145
:1003B0000001000100010001000100010001000135
:1003C0000001000100010001000100010001000125
:1003D0000001000100010001000100010000000017
:1003E0000000000100010001000100010001000106
:1003F00000010001000100010001000100010000F6
:1004000000010000000100010001000000010001E6
:1004100000010001000100010001000100010001D4
:1004200000010001000100010001000100010001C4
:1004300000010001000100010001000100010001B4
:1004400000010001000100010001000100010001A4
:100450000001000100010001000100010001000194
:100460000001000100010001000100010001000184
:100470000001000100010001000100010001000174
:100480000001000100010001000100010001000164
:100490000001000100010001000100010001000154
:1004A0000001000100010001000000000000000147
:1004B0000001000100010001000100010001000134
:1004C0000001000100010001000100000001000026
:1004D0000001000100010000000100010001000115
:1004E0000001000100010001000100010001000104
:1004F00000010001000100010001000100010001F4
:1005000000010001000100010001000100010001E3
:1005100000010001000100010001000100010001D3
:1005200000010001000100010001000100010001C3
:1005300000010001000100010001000100010001B3
:1005400000010001000100010001000100010001A3
:100550000001000100010001000100010001000193
:100560000001000100010001000100010001000183
:100570000001000100000000000000010001000176
:100580000001000100010001000100010001000163
:100590000001000100010000000100000001000155
:1005A0000001000000010001000100010001000144
:1005B0000001000100010001000100010001000034
:1005C000000000000000000000000101020304051B
:1005D00006080A0C0F1114181C2024292E33393F49
:1005E000464C535B626A7179818A929AA2AAB2B927
:1005F000C1C8CFD5DCE1E7EBF0F4F7FAFCFDFEFF74
:10060000FEFDFCFAF7F4F0EBE7E1DCD5CFC8C1B9A9
:10061000B2AAA29A928A8179716A625B534C463F70
:1006200039332E2924201C1814110F0C0A08060532
:10063000040302010100000000000000000000228D
:1006400023252628292A2C2D2F3032333536383AC7
:100650003B3D3E4042434547494A4C4E505153551D
:1006600057595A5C5E6062646668696B6D6F71733E
:100670007577797B7D7F81838587898A8C8E90923F
:100680009496989A9C9E9FA1A3A5A7A8AAACAEAF4A
:10069000B1B3B4B6B8B9BBBCBEBFC1C2C3C5C6C78F
:1006A000C9CACBCCCDCED0D1D2D2D3D4D5D6D7D740
:1006B000D8D9D9DADADBDBDBDCDCDCDCDCDDDDDD88
:1006C000DDDCDCDCDCDCDBDBDBDADAD9D9D8D7D784
:1006D000D6D5D4D3D2D2D1D0CECDCCCBCAC9C7C631
:1006E000C5C3C2C1BFBEBCBBB9B8B6B4B3B1AFAE6F
:1006F000ACAAA8A7A5A3A19F9E9C9A989694929015
:100700008E8C8A89878583817F7D7B7977757371EC
:100710006F6D6B6968666462605E5C5A59575553C9
:1007200051504E4C4A4947454342403E3D3B3A3882
:1007300036353332302F2D2C2A292826252322FF27
:10074000AA7F5540000101010101010101010202DE
:10075000020202020202020303030303030303046F
:10076000040404040404050505050506060606063A
:10077000070707070708080808090909090A0A0AF4
:100780000B0B0B0C0C0C0D0D0D0E0E0E0F0F0F1096
:100790001011111112121313141415151616171720
:1007A000181819191A1A1B1B1C1D1D1E1E1F20208C
:1007B000212222232424252626272829292A2B2CD6
:1007C0002D2D2E2F30313232333435363738393AF9
:1007D0003B3C3D3E3F404142434445464748494AF1
:1007E0004C4D4E4F50515354555658595A5B5D5EBF
:1007F0005F616264656668696B6C6D6F707273755A
:1008000077787A7B7D7E8082838587888A8C8E8FBD
:1008100091939596989A9C9EA0A2A3A5A7A9ABADEB
:10082000AFB1B3B5B7BABCBEC0C2C4C6C9CBCDCFD9
:10083000D1D4D6D8DBDDDFE2E4E7E9EBEEF0F3F587
:10084000F8FAFDFF1E0F0500047F3F1F6432146499
:100850003214783C1E1E140A05FD377A585A0000DF
:1008600004E6D6B4460200210116000000742FE50C
:10087000A3E00BF402DC5D003D8889C65436C31743
:100880004FE4E20A9BF33ECD6EC010CEE9B4F29F76
:100890001C2EFAE632CC61FDE9EDC6BB978B055AFA
:1008A00016CB3EEB3A61C863194B12DEC157C71431
:1008B0003FA8A9D90C9A3E365003761141ECA9C243
:1008C00008555CEFE5468E3B72AAECD5F1E4FAFEE2
:1008D000A6848185345D19F52D2971A6EFCD282ECA
:1008E000C9437C37321B54657C7A05E1A9F0823814
:1008F000061E82951B1C6B697D1B77764E79F1E392
:10090000B6B09B3388606ECF7DE39BB6CC2CC8B865
:1009100080E906CADFF4A71B1609CAC1E2FEF0820D
:1009200009B3C17764A6C8CF3D28A426B7994A0465
:10093000D1F1C4027817345CC120FB2F7D0E300D3D
:10094000CAFA74243C46B2A9E34BD63E71A141A534
:100950003C8323C0FE09A87C783F4425432571E0F1
:100960004D9E71E9585F1DDEB819ED4B09DFA723D5
:100970003F37CEEBA9D819A9F7022C927F22B211EA
:10098000788303651ED977C8C63363D53A8A00BD1C
:1009900042AC3868AB817F0E7A2380CB1C5B45620A
:1009A000371E51869D84D4BA6933868F6B5DD97AA0
:1009B0007D8A527E4B4163230E807124EA3A427154
:1009C0004E589C48C97C26EE24F15C15291BC16B4E
:1009D000170D84E63D7AFA4BE1A53A2EC851F14154
:1009E0005A52F1F785978E02FBE6F17504DC7CD54F
:1009F0004E656E41E243E7032BCB2DECEE2D373AEB
:100A0000F6AE15A276CF22AC6B7FD37EA294C397AD
:100A10005D73465DC480B62384252595CFD182823F
:100A20009A691C0242F07CE30DD5AFA183FCA1BC06
:100A3000D78682FE79474BFED0924247C4C16FCC25
:100A4000980B78D871B265D4C56E1DCC5F29C1737F
:100A5000362A68F81AB2BD7ED3CBF9460E5E72799B
:100A6000028D1D5135F1D0DC245285B61B09DF3EC5
:100A70006A8C0B3CA7350FD7EE2CACD87BC6484B05
:100A800082DD79BFE50775E069EA2FE44260C07155
:100A900052C884076ACA19CE9D69018AEFA8D6D2C6
:100AA0007F4CD4A3C3FFF2B7883E5EC557C2207AFD
:100AB00065ADC627864789F3AE0325DD31E64F795C
:100AC000429F3B1B872A0A2E68DBCED8C5082D7AA9
:100AD0009A880D78B645755F72069C39D1CA40C0B8
:100AE00070F5BE64BBD88EEC1CB9B62FD1618A33C9
:100AF0001AF493FC79D5EBB715D373703E0DD72854
:100B0000383E930CCD2E3106C3B7FB0BD9E5DE1D65
:100B10001609CB43335547F558D1490E57957FDE1B
:100B2000BE46675F49BB53FEDAB3C73DCAFF642FB9
:100B30003F0B467DF0E445E05089B779CA98784686
:100B4000A4B4141B110A0D1A9771D1039A27717D51
:100B5000CB0FC80000ED80C34945FADAA90001F8BF
:100B600005F5170000B993A55AB1C467FB02000050
:100B7000000004595A0000000000000000000000BE
:100B80000000000000000000000000000000000065
:100B90000000000000000000007E0F00D4FFFFFFF7
:100BA000C70000007800000000000000002A2B2889
:100BB0000000000000000000000000000000000035
:100BC00029000000002C1E34202122243426272551
:100BD0002E362D3738271E1F202122232425263389
:100BE00033362E37381F0405060708090A0B0C0D8B
:100BF0000E0F101112131415161718191A1B1C1D9D
:100C00002F3130232D350405060708090A0B0C0D7A
:100C10000E0F101112131415161718191A1B1C1D7C
:100C20002F3130354C0011241FBECFEFDAE0DEBF8C
:100C3000CDBF04B603FE18C08091E6039091E70390
:100C4000A091E803B091E9038730904BA740B04BE7
:100C500059F41092E6031092E7031092E803109201
:100C6000E903E0E0F8E3099523E0ACE9B1E001C075
:100C70001D92A63EB207E1F711E0A0E0B1E0E2EA82
:100C8000F4E602C005900D92AC39B107D9F70E9485
:100C9000B0260C94A7310C9400009C01FB019A959E
:100CA00081159F4118F5D901AA27B270832F817051
:100CB000B90166277470A9014427587034FF0CC02D
:100CC0008295807FAB2B09F08062672B09F08064EE
:100CD000452B09F080680994AB2B09F08260672BE3
:100CE00009F08460452BB9F38860F5CF80E0F3CF3D
:100CF00080FF08C05F9A81FF07C05E9A82FF06C02E
:100D00002C9A08955F98F7CF5E98F8CF2C980895A5
:100D1000E82F9E3F61F181E1989FE00D11248E2F15
:100D2000877041E001C0440F8A95EAF7E695E695A1
:100D3000E69583E0E89FF0011124E959FC4F30E08B
:100D400020E070E05191DF011197CB01022E02C02B
:100D5000969587950A94E2F781708195852784237B
:100D600085278C932F5F3F4F2330310559F7089526
:100D7000E82F9E3F41F181E1989FE00D11249E2FC5
:100D80009770E695E695E69583E0E89FF0011124DB
:100D9000E959FC4F50E040E080E0219130E0092E1D
:100DA00002C0369527950A94E2F721703327042E66
:100DB00001C0220F0A94EAF7822B4F5F5F4F433046
:100DC000510559F7089580E008958091AD03909101
:100DD000AC03981301C008958F5F8770FACF90918C
:100DE0001F019923E1F09091E40397FF18C0E82FC9
:100DF000E695E695E695803FF0F4F0E0E256FE4F8A
:100E0000877021E030E0A90102C0440F551F8A9588
:100E1000E2F7CA0180959281892382830895E0EAEE
:100E2000F1E09191891303C0DF0111971C9251E009
:100E3000E63AF507B1F70895982F90958091A403AD
:100E400089238093A40308958091A103882331F01E
:100E50001092A1031092AB031092AA0308959091EF
:100E6000E40392FF06C0282F28712830F9F4877F09
:100E7000846093FF06C0282F28712831F1F4877E03
:100E800084612091E50320FF06C0382F3871383087
:100E9000D9F4877F816021FF06C0282F287128316F
:100EA000D1F4877E816194FD877E0895282F247177
:100EB0002430F9F68B7F8860DCCF282F2471243111
:100EC00001F78B7E8861DDCF382F3171313019F712
:100ED0008E7F8860E0CF282F2171213121F78E7E0F
:100EE0008861E1CFCF93DF93EC01803E910509F457
:100EF00060C050F58133910509F4A6C090F48932A1
:100F0000910509F49AC08A9709F4A5C0C130D105AA
:100F100009F462C0CE010497813A910508F055C0EA
:100F20005BC089339105F1F182389105D9F1C597FC
:100F300009F47CC0C83AD10508F094C0C53AD1057F
:100F400028F3A497D06448C0843E910509F453C0A7
:100F500068F4823E9105E1F1833E910509F440C0B9
:100F6000CE01805E9109089780F536C0863E9105D6
:100F700009F44CC0873E910509F44DC0811523E565
:100F8000920708F09AC0811532E5930708F000C176
:100F90008F3F910511F008F074C0803F910550F229
:100FA000D0651AC08091E4038370B1F0C0EED0E048
:100FB00013C08091E40380FD15C19091E50390FF7B
:100FC0000BC0C3EED0E084FF07C0D0E0C0E004C097
:100FD0008091E40382FDF5CFCE01DF91CF9108959A
:100FE0008091E40382FD01C19091E50390FDDECF85
:100FF00084FFF2CFEACF8091E50381FFEDCF8091AE
:10100000E403C7EED0E084FDE0CFE6CF8091E403B7
:1010100083FDF7CFE1CF8091E40383FDE9C0909198
:10102000E50391FFE5CFC4EED0E0D6CF8091E40395
:1010300085FFD2CFC9E2D0E0CFCF8091E40385FF16
:10104000CBCFC5E3D0E0C8CF8091E40386FFC4CF07
:10105000CAE2D0E0C1CF8091E40386FFBDCFC1E3F7
:10106000D0E0BACFCF3BD10508F07ACFC85AD0E054
:10107000CC0FDD1FC359DE4F0990D881C02DD46439
:10108000ABCFC11581E5D80798F4C11520E5D2078B
:1010900008F061C0C11530E2D30708F49DCFCE013E
:1010A00090548115904108F090CFDF70D06A94CFB2
:1010B000DC2FCC27C16FD06A8FCF811539E593071C
:1010C000A0F5C11588E5D80708F07AC0C11525E557
:1010D000D207C8F4C11534E5D30708F06CC09E01EF
:1010E0002370332781E090E002C0880F991F2A9572
:1010F000E2F7C695C69520E2C29FE0011124C82BF5
:10110000D92BDA6869CFCE0195558F3F910511F043
:1011100008F05BCF8C2F0E942F07C82FD0E0DC2F68
:10112000CC27CC27DF71D06257CF81153AE59307E2
:1011300008F44BC090568115904208F046CF8D2F91
:101140008F710E942F0790E0982F882788279F7122
:101150008C2BEC01E8CF9E0174E0369527957A95AB
:10116000E1F723708C2F86958695837030E2839FFC
:10117000C0011124922BC37021E030E002C0220F85
:10118000331FCA95E2F7822B932BEC01DC6824CF46
:101190009C012370332781E090E002C0880F991FE3
:1011A0002A95E2F7C695C69520E2C29FE001112478
:1011B000C82BD92BEBCFDC2FCC27C46FD06A0CCF38
:1011C000DC2FCC27C06FD06A07CF8F700E942F070B
:1011D00034E0D695C7953A95E1F7CF709C2FEC0196
:1011E000D069FACEC9E3D0E0F7CEC2EED0E0F4CEBB
:1011F000C6EED0E0F1CE80E00895089580918E0390
:1012000080FD14C081FD14C082FD16C08091900342
:10121000882381F08E3180F420E5829FC001112463
:101220006EE170E00E942A30862F089584E10895CF
:1012300088E2089588E0089580E5089580918E03FE
:1012400080FD16C081FD16C082FD16C080918F03FF
:101250008823A1F0883280F428E0829FC001112405
:1012600068E270E00E942A30862F672B39F00895DB
:1012700082E0089584E0089588E0089581E008956B
:10128000805F803108F045C0E82FF0E0E755FE4C64
:101290000C943E300E94FE0881958093940308953B
:1012A0000E94FE08FACF0E94FE0881958093930366
:1012B00008950E94FE08FACF0E941E0980939503AC
:1012C00008950E941E098195F9CF0E941E098195FB
:1012D0008093960308950E941E09FACF809192038D
:1012E0008160809392030895809192038260F9CF88
:1012F000809192038460F5CF809192038860F1CF52
:10130000809192038061EDCF80918E038160809304
:101310008E03089580918E038260F9CF80918E03B1
:101320008460F5CFE82F309194032091930390913E
:10133000950380919603E03FA1F437FD109294034A
:101340008091930390919403892B11F41092900350
:101350008091950390919603892B11F410928F033D
:101360000895E13F19F413164CF3EACFE23F29F454
:1013700027FFE6CF10929303E3CFE33F19F4121651
:10138000CCF3DECFE93F29F41916D4F61092950379
:10139000D7CFEA3F19F497FFD3CFF8CFEB3F29F42B
:1013A00087FFCECF10929603CBCFEC3F19F41816DF
:1013B000CCF3C6CFE45FEC3008F0C2CFF0E0E754E6
:1013C000FE4C0C943E30809192038E7F809392036A
:1013D000B7CF809192038D7FF9CF809192038B7F5D
:1013E000F5CF80919203877FF1CF809192038F7E1A
:1013F000EDCF80918E038E7F80938E03A1CF80915D
:101400008E038D7FF9CF80918E038B7FF5CF6F9206
:101410007F928F929F92AF92BF92CF92DF92EF9284
:10142000FF920F931F93CF93DF93B82EA62E8901BF
:10143000E42FF0E0EC5BF84F611119C0E4918E2FBE
:101440002E2FD80111962C931197EC9312968C9312
:10145000DF91CF911F910F91FF90EF90DF90CF9090
:10146000BF90AF909F908F907F906F900895E62EE1
:10147000F12C249186E0B89E60011124CFEFD0E0DA
:10148000C601BE010E9416308B2D90E0880F991F77
:1014900035E5369FA001379F500D1124841B950B15
:1014A000982F990F980FAE014E195F09249FD00114
:1014B000259FB00D1124EB2FA99E50011124AB2CB8
:1014C000BB24AE014A195B09249F5001259FB00C33
:1014D00011248B2D3E01691A71086E9C40016F9C8E
:1014E000900C7E9C900C1124892C9924C819D90940
:1014F0002C9FA0012D9F500D112463307105D1F058
:101500009CEFC91693E0D90670F461307105B1F013
:1015100062307105B9F0FFEFCF16D10408F091CF1A
:101520008B2FE52F8ECF6430710579F06630710511
:10153000B9F387CFEB2D822F2B2F83CFE22F2B2DCB
:101540008B2F7FCF852FE22FF7CF822F252F79CFBB
:1015500080919C03982F9E7F29F4817082608093F4
:101560009C0308958635E8F381708465F8CFFA010D
:1015700081110994FB01FDCF0F931F93CF93DF934C
:10158000CDB7DEB728970FB6F894DEBF0FBECDBF3C
:101590008C0180918600909187006CE070E00E9441
:1015A00016306017710788F0C80169E070E00E948A
:1015B0001630CB0128960FB6F894DEBF0FBECDBF14
:1015C000DF91CF911F910F910895809186009091A6
:1015D000870020918600309187003E832D832091E3
:1015E000860030918700E6E0F0E0BF010E941630EF
:1015F000C801B0E0A0E0860F971FA11DB11DAC018E
:10160000BD0185E0440F551F661F771F8A95D1F7EE
:1016100049835A836B837C838D819E81BF010E94A5
:10162000163050E040E0260F371F411D511D6981E3
:101630007A818B819C810E94763129833A834B8306
:101640005C83E0918600F0918700CA01B9010E9495
:10165000EC2FDF019B01AC010E9463316D837E831F
:101660008F8398879B01AC0169817A818B819C81F2
:101670000E94EC2F69837A838B839C83AB01BC012E
:101680009FE076956795579547959A95D1F7809104
:10169000860090918700B0E0A0E084179507A60728
:1016A000B70720F44091860050918700CA0182CF8D
:1016B000CF93DF9300D000D0CDB7DEB7843020F5D4
:1016C000811123C0909180009F7D909380002E987F
:1016D000A0918600B0918700282F30E00E949831B9
:1016E00023E030E040E050E00E947631C9010E94E2
:1016F000BC0A90938B0080938A000F900F900F90FC
:101700000F90DF91CF91089583E0909180009062D7
:1017100090938000DDCF282F220F220F220F90916F
:1017200097039770922B90939703987F21E009F489
:1017300020E09091970320FB90F9909397030C94ED
:10174000580BE0914503F0914603309721F001904A
:10175000F081E02D099480E008952091F20130910C
:10176000F3012817390771F09093F3018093F20188
:10177000E0914503F0914603309721F00680F78110
:10178000E02D099408952091F0013091F10128177E
:10179000390771F09093F1018093F001E0914503D6
:1017A000F0914603309721F00084F185E02D0994F3
:1017B00008959C0180911F018823C1F08091E4036A
:1017C00087FF14C0862F869586958695603FF8F42E
:1017D000F901E80FF11D677021E030E001C0220F30
:1017E0006A95EAF78281822B82830895F901329605
:1017F0008FEF90E04191641751F08F3F19F4411140
:1018000001C0892F9F5F9630A9F78F3F09F4089593
:10181000280F311D87FD3A95F901628308952FB78E
:10182000F8948091090390910A03A0910B03B09161
:101830000C032FBF08950E940F0C20919303309149
:101840009403232B21F080930203909303032091B0
:10185000950330919603232B21F0809300039093FE
:101860000103E0914503F0914603309749F082E08F
:10187000809391030480F581E02D81E993E0099440
:1018800008959C014FB7F8948091090390910A0341
:10189000A0910B03B0910C034FBF821B930B0895D3
:1018A0008091EF0108950895FC01CB012091CA01B8
:1018B0003091CB012617370790F0009729F420913B
:1018C000E8002E772093E80040E0009751F44111A2
:1018D00008C08091E80082FF31C080E00895C9010E
:1018E000F3CF209111032223A9F12530A9F12091F2
:1018F000E80023FD2DC02091E80022FDEACF2091D1
:10190000E80020FFE2CF3091F3002091F200009731
:1019100019F02830310558F041E02830310509F040
:1019200040E02091E8002E772093E800CECF41914F
:101930004093F10001972F5F3F4FE9CF8091110352
:10194000882341F0853041F08091E80083FFC1CFCA
:1019500081E0089582E0089583E008958091C401B4
:1019600087FF13C08091E80082FF06C08091E800E5
:101970008B778093E80004C0809111038111F2CF2E
:101980000895809111038823D9F38091E80080FFA6
:10199000F8CF8091E8008E77ECCF2091E400309171
:1019A000E50095E6A9012091EC00822F817020FFCF
:1019B00006C08091E80080FF06C080E00895209175
:1019C000E80022FD1AC080911103882389F0853038
:1019D00089F08091EB0085FD0FC02091E4003091EB
:1019E000E50042175307F9F29150E1F684E00895BB
:1019F00082E0089583E0089581E00895E8EDF0E045
:101A000080818E7F80831092E2001092DA00109223
:101A1000E100A0EEB0E08C9181608C9380818F77A3
:101A2000808319BCA7EDB0E08C918E7F8C93808170
:101A30008F7E80831092C3010895EF92FF920F93DF
:101A40001F93CF937C018B010E94CD0CC82F811175
:101A500017C08091E80085FD0BC08091E8008E776B
:101A60008093E8000E94CD0C882399F3C82F08C00A
:101A7000F70181917F018093F1000150110949F72D
:101A80008C2FCF911F910F91FF90EF900895CF93DE
:101A9000209111032430F1F42091E900C091EC0071
:101AA000C795CC27C7952F70C22B22E02093E90061
:101AB0002091E80020FF0BC050E040E060E270E0C1
:101AC0000E941D0D8091E8008E778093E800CF7012
:101AD000C093E900CF910895982F9093E900242FA7
:101AE000762F50E0891731F07091EC002091ED00D5
:101AF0005091F00021FD06C09F5F973071F78093F1
:101B0000E90008953091EB003E7F3093EB00309177
:101B1000ED003D7F3093ED003091EB00316030936C
:101B2000EB007093EC002093ED005093F0002091B7
:101B3000EE0027FDE1CF0895CF92DF92EF92FF9262
:101B40000F931F93CF93DF93C8EDD0E088818F7EF2
:101B50008883E7EDF0E080818160808384E082BF4C
:101B600081E08093C30188818E7F888302EE10E03C
:101B7000F80110821092DA0081EEC82ED12CF60105
:101B8000108288818F7788838881806888838881A4
:101B90008F7D888319BC109211031092C20110929C
:101BA000E0021092C10190EEE92EF12CF701808144
:101BB0008B7F808388818160888342E060E080E061
:101BC0000E946C0DF60180818E7F8083F8018081F8
:101BD00081608083808188608083F70180818E7F2F
:101BE0008083888180618883DF91CF911F910F91DD
:101BF000FF90EF90DF90CF9008952F923F924F92F9
:101C00005F926F927F928F929F92AF92BF92CF928C
:101C1000DF92EF92FF920F931F93CF93DF9390E0A9
:101C200080E0C0E035E4232E33E0332E382FEFEF91
:101C3000E80FE03128F4F0E0EB53FE4C0C943E301A
:101C40002D982F98889803C02D982F98889A289AB5
:101C500020EA2A95F1F7C12CD12C7601C394082EE5
:101C600004C0CC0CDD1CEE1CFF1C0A94D2F746010C
:101C7000570180949094A094B094ADE2B3E007E64D
:101C800011E020E04D915D916D917D91F801D19130
:101C90008F01ED2FE295EF70E05EF0E0E081F0E083
:101CA000DF7002C0F595E795DA95E2F72A013B016E
:101CB000E0FD43C04C285D286E287F28FD01349745
:101CC000408251826282738244155505660577050C
:101CD00009F021E02A163B06A9F63150303190F583
:101CE000E32FF0E0EB52FE4C0C943E302D982F9AEF
:101CF000A9CF2D982F9AAACF2D9AA3CF2D9AA5CFF1
:101D00002D9AF5CF2D9AF6CF2D982F98889803C04D
:101D10002D982F98889A899A9BCF2D982F9AF6CF35
:101D20002D982F9AF7CF2D9AF0CF2D9AF2CF2D9A8A
:101D3000F8CF2D9AF3CF76988BCF482059206A2080
:101D40007B20BCCF2D9A2F9A889A03C02D9A2F9A68
:101D500088982898C22B01968131910509F066CFA9
:101D6000CC2309F444C081E0809314030E940F0C3B
:101D700090931303809312038091120390911303A5
:101D80000E94410C0597B8F188E1EDE2F3E0A5E18E
:101D9000B3E001900D928A95E1F7109214032BC0E5
:101DA0002D9A2F98D1CF2D9A2F98D2CF2D98CBCF77
:101DB0002D98CDCF2D98F5CF2D98F6CF2D9A2F9A1F
:101DC000889A03C02D9A2F9A88988998C3CF2D9A04
:101DD0002F98F6CF2D9A2F98F7CF2D98F0CF2D98DA
:101DE000F2CF2D98F8CF2D98F3CF769AB3CF80917C
:101DF00014038111C1CF8C2FDF91CF911F910F91CF
:101E0000FF90EF90DF90CF90BF90AF909F908F901A
:101E10007F906F905F904F903F902F9008958091AA
:101E20009C0380FD0AC0E5E8F2E011821082128274
:101E3000339652E0E93DF507C1F76A9A3EB13B7F20
:101E40002EB124604FB7F89485E892E0FC0101962A
:101E5000508168E02EB9000000C057FF3EB9550F11
:101E6000000000C000C000C03EB900C06A9591F7F4
:101E700052E0893D950751F74FBF8FE594E00197F8
:101E8000F1F700C000000895EF92FF921F93CF93E7
:101E9000DF93EC0185E8E82E82E0F82E10E08C81DB
:101EA000970140919F0360919E03810F0E94070A52
:101EB000175F83E0E80EF11C1C3F89F70E940F0FAB
:101EC0009A818C8190FF08C08F5F8C83DF91CF91C6
:101ED0001F91FF90EF9008958150F7CFCF92DF923E
:101EE000EF92FF920F931F93CF93DF93FC018281B8
:101EF000DD24DA9480FD02C0DD24D39405E812E0ED
:101F0000D0E0C0E0F80111821082128294E0E92E44
:101F1000F12CC12C809184028C0D8D31E4F16CE1A7
:101F20000E940830892F082E000C990B8C179D07F2
:101F300091F480919F038E9DA0018F9D500D1124DF
:101F40005595479555954795980160919E038091C9
:101F50009D030E94070ACD0CF1E0EF1AF108D1F6BB
:101F600021960D5F1F4FCC31D10561F60E940F0FF6
:101F70008091840291E0D91212C08823B1F081507F
:101F800080938402DF91CF911F910F91FF90EF908A
:101F9000DF90CF90089587FFC6CF845EC4CF90E0D6
:101FA0000196BE010E942A30EBCF8BE1E9CF0F935F
:101FB0001F93CF93DF93C5E8D2E0FE011182108218
:101FC0001282339682E0E93DF807C1F710E000E0A5
:101FD00080918302082E000C990B081719078CF1C9
:101FE00080910701082E000C990B801791074CF186
:101FF0009E0140919F0360919E0380919D030E94EA
:10200000070A0F5F1F4F23960C31110509F70E9435
:102010000F0F8091060190918302980F9093830295
:1020200020910701280F20930701121614F49B3109
:102030001CF0819580930601DF91CF911F910F9144
:102040000895198218821A82DCCFCF92DF92EF9224
:10205000FF920F931F93CF93DF93CDB7DEB72E97E9
:102060000FB6F894DEBF0FBECDBF8D879E87AD85BE
:10207000BE8514961C91212F30E0D9010E94983121
:102080009B01AC010E94633169837A838B839C83BB
:10209000E0E2F0E0E11BF109A5E5B0E09B01AC0155
:1020A0000E94633169877A878B879C879F01DF0154
:1020B0000E944B309B01AC010E946E316D837E8388
:1020C0008F8398879B01AC0189819A81AB81BC8108
:1020D000280F391F4A1F5B1F69857A858B859C8570
:1020E0000E947631F22E422F50E099E29F1508F4BB
:1020F00042C0A3E02A9F9001112435952795122F05
:10210000109595E8C92E92E0D92E00E085E5E82EDD
:10211000EF188E2D01FD8F2D9601412F60919E03AA
:102120000E94070A0F5FB3E0CB0ED11C0C3189F778
:102130000E940F0FED85FE85948181E0992319F0AF
:10214000903219F48FEF8093050180910501890F7A
:10215000AD85BE8514968C932E960FB6F894DEBF8F
:102160000FBECDBFDF91CF911F910F91FF90EF90E8
:10217000DF90CF90089585E590E0841B950B9C013E
:10218000220F331F280F391F37FFB7CF2F5F3F4F65
:10219000B4CFEF92FF920F931F93CF93DF93EC0195
:1021A00005E812E0F12CE12C9C8160919E03809166
:1021B0009D032EE0E216F104FCF49923F9F0980156
:1021C00040919F030E94070A8FEFE81AF80A0D5FFB
:1021D0001F4F2CE1E216F10439F70E940F0F8C819A
:1021E00090E00196817099278C83DF91CF911F91A8
:1021F0000F91FF90EF900895992309F3980140E023
:10220000E1CF90919C0390FF0CC0E5E8F2E0818360
:1022100060834283339692E0E93DF907C1F70C945D
:102220000F0F08950F931F93CF93DF9300D00F925A
:10223000CDB7DEB78C018091820281110AC09E0168
:102240002F5F3F4F4FEF6FEF0E94070A8A81809305
:102250008202F8016481613049F06230F1F08091CE
:10226000820240E0662331F040E019C060918202B2
:1022700040E080E00E940111F801848190E0019625
:1022800063E070E00E942A3084830F900F900F90DB
:10229000DF91CF911F910F9108954091820280E0CC
:1022A00060E0E8CFCF93DF9300D00F92CDB7DEB7D9
:1022B00090919C0390FF0FC09E012F5F3F4F0E94A3
:1022C000070A4B8169818A810F900F900F90DF91EF
:1022D000CF910C9401110F900F900F90DF91CF913F
:1022E0000895CF93DF93EC01EC81F0E0E15CF94FCE
:1022F0004491ECE9F3E0628181810E9452118C816A
:102300008F5F8C83DF91CF910895CF93DF93EC01A2
:10231000ECE9F3E0438162818C810E9452118C814F
:102320008F5F8C83DF91CF91089581E08093E000EF
:1023300080E28093D8001092C9008FE19EE401975B
:10234000F1F700C0000087E090EBDC018093E6032A
:102350009093E703A093E803B093E90388E19CE03E
:102360000FB6F894A895809360000FBE909360001C
:10237000FFCFCF93DF93D82FC92F80911F018823E0
:10238000C1F18091E40387FF34C060E284E0809370
:10239000E9008FEF9091E800815095FD06C095ED22
:1023A0009A95F1F700008111F5CF8091E80085FF43
:1023B0001DC080911F0170E050E040E0811104C019
:1023C00050E040E068E070E08D2F9C2F0E941D0DD2
:1023D0008091E8008E778093E80080E2ED2FFC2F5B
:1023E000AFECB1E001900D928A95E1F7DF91CF91CA
:1023F000089568E081E0CBCF24E02093E9002FEF3F
:102400003091E800215035FD06C035ED3A95F1F7E1
:1024100000002111F5CF2091E80025FF0BC050E00E
:1024200040E066E070E00E941D0D8091E8008E772C
:102430008093E80008958093CC017093CE0160935F
:10244000CD01809111038430F9F48093E9008FEF7E
:102450009091E800815095FD06C095ED9A95F1F7B1
:1024600000008111F5CF8091E80085FF0DC050E09C
:1024700040E063E070E08CEC91E00E941D0D8091E3
:10248000E8008E778093E8000895BC0183E00C9407
:102490001B12BC0184E00C941B12682F86E090E0B4
:1024A0000C9410318091970381FD10C0826080935D
:1024B00097030E944D121092DB021092DA021092E2
:1024C000D90280916F00816080936F0008958091A0
:1024D000970381FF11C08D7F809397030E944D1257
:1024E00080916F008E7F80936F0080919703869517
:1024F000869586950C94580B0895CF93C82F6FEF4F
:10250000811163EE83E290E00E9410316FEFC11100
:102510006CE584E290E00E9410316FEFC1116BE531
:1025200085E290E0CF910C9410310F931F93CF93DD
:10253000DF938901843048F5663038F5413128F55C
:1025400021153C4531F420910D0330910E03232BCE
:10255000E1F0C42FD0E0CC0FDD1F92E2699FC00DE7
:10256000D11D11249CEC899FC00DD11D1124612F18
:10257000CE0187960E941031602FCE018896DF91A0
:10258000CF911F910F910C941031DF91CF911F913A
:102590000F9108958F929F92AF92BF92CF92DF9248
:1025A000FF920F931F93CF93DF9380900D03909032
:1025B0000E0381E090E090930E0380930D03B12C05
:1025C000A12C00E0650110E013C0FE0125913491BB
:1025D0004F2D612F802F0E9495122296F39481E156
:1025E000F812F3CF81E1C80ED11C1F5F163039F00D
:1025F000E601CC0FDD1FC157DD4FF12CE6CF0F5F99
:1026000086E6A80EB11C0430E9F690920E03809283
:102610000D03DF91CF911F910F91FF90DF90CF902D
:10262000BF90AF909F908F900895CF93DF93C7E5B1
:10263000D3E060E0CE010E9410312196C11584E004
:10264000D807B9F7DF91CF91089580E00E947D12FD
:1026500060E086E290E00E9410310E94CA120E945F
:10266000151381E00C947D12CF9384E090E00E94DA
:10267000FC30C82F82E290E00E94FC30982F8C2F13
:10268000CF91089583E290E00E94FC30833E89F46C
:1026900084E290E00E94FC308C3559F485E290E0B1
:1026A0000E94FC3091E08B3509F090E0892F817019
:1026B000089580E0FCCF0F931F93CF93DF93843076
:1026C00030F5663020F5413110F5C42FD0E0CC0F45
:1026D000DD1F22E2629FC00DD11D11243CEC839FBF
:1026E000C00DD11D1124CE0187960E94FC30082F09
:1026F00010E0102F0027CE0188960E94FC30980130
:10270000282BC901DF91CF911F910F91089590E07F
:1027100080E0F8CF462F672F20910F0330911003F0
:10272000232B89F47E3F39F44E3F69F48091F40104
:102730009091F5010895843030F4763020F44131E1
:1027400010F40C945B1390E080E00895DF92EF9218
:10275000FF920F931F93CF93DF937C010091A3030C
:102760008091A203082BC7E0D0E010E0DC2EC80166
:102770000C2E02C0959587950A94E2F780FD0CC057
:102780002197A0F7D12C8D2DDF91CF911F910F9123
:10279000FF90EF90DF900895B7018C2F0E948A136D
:1027A0000E947207019761F3EECF0F931F93CF93AF
:1027B000FC01828100811181882389F0662379F0F0
:1027C000C8010E94A613C82F682FC8010E9488065E
:1027D000B8018C2FCF911F910F910C948A13C801CF
:1027E0000E94B806C82FF4CFCF93DF93D82FC92FFC
:1027F0000E94A6136D2F7C2F0E948A13DF91CF9128
:102800000C9472070E94F413282F92959F709630B3
:1028100091F060F4925F9F70923030F481E0203F3D
:1028200081F030F4283E30F080E008959A5FF3CFD5
:10283000243FD1F7089581E0283EE0F3213FA1F73E
:10284000F9CF08958091A4039091A603892B8093DA
:102850009E018091A103882329F10E940F0C2091F1
:10286000AA033091AB03821B930B8838934110F07D
:102870000E94240780919E019091A103892B80934F
:102880009E0180911F018823D9F18091E40387FF85
:1028900037C08EE1E0EAF1E090E0815098F59111C7
:1028A0000E94240740E250E067E473E08EE991E083
:1028B0000E94E830892B59F180E2EEE9F1E0A7E4CB
:1028C000B3E001900D928A95E1F7E0914503F09114
:1028D00046033097E1F080911F01882359F08091E1
:1028E000E40387FF07C080919E0180939F0186E0EB
:1028F00080939E010280F381E02D8EE991E009949E
:1029000086E0C8CF2191222341F29F5FC6CF089570
:10291000CF93C82F882309F46BC08CEF8C0F813ABA
:10292000A8F580911F01882301F18091E40387FFBE
:102930001CC0EC2FE695E695E695F0E0E256FE4FDA
:10294000828190E04C2F477021E030E002C0220FDE
:10295000331F4A95E2F782239323892B79F08C2F3A
:102960000E94EF060E94221409C0E0EAF1E0819182
:10297000C817A9F321E0E63AF207C9F76C2F8EE9F0
:1029800091E00E94D90BCF910C94221480E28C0F1D
:10299000883068F4C77021E030E001C0220FCA958A
:1029A000EAF78091A403822B8093A403ECCF8BE5FC
:1029B0008C0F833038F42C2F2452330BC901CF9164
:1029C0000C94AD0BE8E5EC0FE73150F4F0E0EE0FBE
:1029D000FF1FE359FE4F80819181CF910C94C30B6F
:1029E000C03F30F08C2F0E944009CF910C941B0CFB
:1029F000CF910895882361F19CEF980F913A20F4CC
:102A00000E94EF060C94221490E2980F983050F434
:102A1000877091E001C0990F8A95EAF7892F0E948B
:102A20001C07F0CF9BE5980F933020F490E080E0F6
:102A30000C94AD0B98E5980F973120F490E080E06E
:102A40000C94C30B803F20F00E9492090C941B0C45
:102A500008950F931F93CF93C82F10E000E08933A0
:102A600011F400E510E08C2F0E9488140115110567
:102A700031F48C2FCF911F910F910C94FA148FE9A0
:102A80009FE00197F1F700C0000001501109EECF5F
:102A9000AF92BF92CF92DF92EF92FF920F931F936C
:102AA000CF93DF93EC018AE0A82E8881882309F474
:102AB0008EC08130D9F599818A81913021F4229696
:102AC0000E94291505C0923029F422960E9488148C
:102AD0002196EBCF933021F422960E94FA14F8CF7E
:102AE000943011F02196F4CF229620E030E0AE0130
:102AF0004F5F5F4F8053990B8A30910560F021152D
:102B0000310531F38FE99FE00197F1F700C0000034
:102B100021503109F4CFA29EB001A39E700D112463
:102B20009C01260F371F8981EA01E1CFE82FF0E0F1
:102B3000EB55F44FB490282F26952695269530E036
:102B4000F901EB56F44FE4908770F12C082E02C087
:102B5000F594E7940A94E2F791E0E922FF24F90161
:102B6000EB57F44FC490D12C082E02C0D594C794D3
:102B70000A94E2F791E0C922DD24F901EB58F44F01
:102B8000049110E002C0159507958A95E2F701704F
:102B90001127E114F10419F081EE0E948814C11488
:102BA000D10419F086EE0E9488148B2D0E942915FD
:102BB000CD2819F086EE0E94FA14EF2819F081EE64
:102BC0000E94FA14012B09F483CF8CE279CFDF91B4
:102BD000CF911F910F91FF90EF90DF90CF90BF901A
:102BE000AF900895882339F09091A403892B8093A6
:102BF000A4030C9422140895882321F00E941C073A
:102C00000C9422140895FF920F931F93CF93DF9398
:102C1000C62FD42F122F8823A9F0609398030E9407
:102C20000F0C9093BF018093BE01C77081E001C07B
:102C3000880FCA95EAF7DF91CF911F910F91FF900E
:102C40000C94F21580919803681334C08091BE01F2
:102C50009091BF010E94410C883C910558F500E21B
:102C60000D0FCD17A9F0C770FF24F3948F2D01C06D
:102C7000880FCA95EAF70E94FC15083048F48D2F9A
:102C8000877001C0FF0C8A95EAF78F2D0E94F2151C
:102C9000812F0E9429150830A0F4D77081E001C06F
:102CA000880FDA95EAF7DF91CF911F910F91FF908E
:102CB0000C94FC15C77081E001C0880FCA95EAF733
:102CC000F2CFDF91CF911F910F91FF90089588234C
:102CD00039F09091A603892B8093A6030C942214BB
:102CE0000895882341F080959091A60389238093CD
:102CF000A6030C942214089590E080E00E94AD0B8E
:102D000090E080E00E94C30B1092A6030E94221460
:102D100086E0E1E9F3E0DF011D928A95E9F7109280
:102D2000900310928F0310928E030C941B0C109240
:102D3000A40380911F01E0EAF1E0882359F080911B
:102D4000E40387FF07C08EE1DF011D928A95E9F752
:102D50000C947C1686E0F8CF1F93CF93DF93CDB70A
:102D6000DEB7AA970FB6F894DEBF0FBECDBF84ECD6
:102D700091E0FC0101962091F100208321E08C3C40
:102D80009207B9F78091C501893009F456C0C8F49B
:102D9000823009F4B3C0833009F482C0813071F10C
:102DA0008091E80083FF91C28091C4019091C50198
:102DB0009A3008F08AC2E92FF0E0EB51FE4C0C94F7
:102DC0003E308A3009F489C08B3051F78091C401BC
:102DD000813231F78091C8019091C901892B01F7A7
:102DE0008091E800877F8093E8000E94AE0C80917C
:102DF000C60180931F010E949716D2CF8091C40113
:102E0000813A71F68091E800877F8093E800809195
:102E1000C8019091C901892B61F460E28FEC91E0C7
:102E200070E00E94540C8091E8008B778093E8005A
:102E3000B7CF60E090E080E0F3CF8091C4018132B1
:102E400009F0AECF8091C8019091C9018D7F892B87
:102E500009F0A6CF8091E800877F8093E8008091F9
:102E6000E80082FF18C09091F3008091F200029771
:102E700031F48091F100813011F0863021F480919D
:102E8000F1008093EF018091E8008B778093E80058
:102E90000E94AE0C85CF809111038111E0CF80CFCD
:102EA0008091C401813A09F07BCF8091C801909153
:102EB000C901892B09F074CF8091E800877F809346
:102EC000E8008091E80080FFFCCF80911F01809393
:102ED000F1008091E8008E77D9CF8091C4018132D2
:102EE00009F05ECF8091E800877F8093E8000E9420
:102EF000AE0C8091C7018093C00152CF8091C40174
:102F0000813A09F04DCF8091E800877F8093E800F7
:102F10008091E80080FFFCCF8091C001D8CF80383D
:102F200099F0823809F0D1C18091C8018F70873043
:102F300008F0CBC18093E9008091EB0085FB8827E6
:102F400080F91092E90006C08091C1019091E002E1
:102F5000911182609091E800977F9093E8008093B0
:102F6000F1001092F1008091E8008E77AAC18823C9
:102F700009F498C1823009F0A8C18091C60181117D
:102F80009BC18091C8018F702FEF280F263008F069
:102F90009CC18093E9002091EB0020FF8DC193300C
:102FA00031F48091EB0080628093EB0085C19091B9
:102FB000EB0090619093EB0021E030E001C0220F24
:102FC0008A95EAF72093EA001092EA008091EB00DC
:102FD0008860EACF811179C11091C6011F77809175
:102FE000E3008078812B8093E3008091E800877F65
:102FF0008093E8000E94AE0C8091E80080FFFCCF37
:103000008091E30080688093E30082E0111183E007
:10301000809311035AC18058823008F056C1409104
:10302000C6015091C7014C3D83E0580799F583E0F4
:103030008A838AE289834FB7F894DE01139620E0F1
:103040003EE051E2E32FF0E050935700849120FFDF
:1030500003C082958F703F5F8F708A30C8F0895CA3
:1030600090E08D939D932F5F243161F74FBF809146
:10307000E800877F8093E8006AE270E0CE01019665
:103080000E94540C8091E8008B778093E8001DC16A
:10309000805DE6CF8091C8019091C901252F33272B
:1030A0002330310509F44AC078F52130310509F49F
:1030B00086C08BE590E0EAECF1E02230310509F0C2
:1030C00004C12091E800277F2093E8002091CA01E5
:1030D0003091CB018217930708F49C0140E0211541
:1030E000310509F071C041116FC08091E80082FD87
:1030F000C9CF80911103882329F2853019F280917C
:10310000E80083FFF2CFBECF2132310509F448C079
:103110002232310509F0D9C08330910508F0D5C0BD
:10312000FC01EE0FFF1FE05DFE4F0190F081E02DEE
:10313000835D9E4FDC018C9190E026C0CA019927E7
:10314000423031F18330910568F40097B1F0019776
:1031500009F0BBC0E7E6F2E0E4918E2F90E0E7E6ED
:10316000F2E012C0039709F0B0C0E7E3F2E0E491A7
:103170008E2F90E0E7E3F2E007C0EBE8F2E0E491A5
:103180008E2F90E0EBE8F2E0009709F49EC099CF13
:10319000E5E5F2E0E4918E2F90E0E5E5F2E0F4CF92
:1031A0008330910508F091C0880F991FFC01EA5CFB
:1031B000FE4F0190F081E02D89E090E082CF82E126
:1031C00090E0E5E2F2E07DCF80911103882309F4DD
:1031D00059CF853009F456CF8091E80083FD52CF56
:1031E0008091E80082FD81CF8091E80080FF77CF59
:1031F0009091F3008091F2002115310519F088308B
:10320000910550F041E0089709F040E08091E80016
:103210008E778093E80063CF44914093F10031961C
:10322000215031090196E8CF803809F04EC08091D5
:10323000E800877F8093E8008091C2018093F100CD
:1032400092CE811142C01091C6011230F0F58091EA
:10325000E800877F8093E8001093C2010E94AE0CC3
:10326000112311F084E005C08091E30087FDFACFBF
:1032700081E08093110342E061EC81E00E946C0DDB
:1032800042E261EC84E00E946C0D42E261EC82E07B
:103290000E946C0D42E260EC83E00E946C0D809114
:1032A000110313C08091C601813079F481E093301D
:1032B00009F080E08093E0021092E9008091E8003C
:1032C000877F8093E8000E94AE0C8091E80083FF26
:1032D0000AC08091E800877F8093E8008091EB002E
:1032E00080628093EB00AA960FB6F894DEBF0FBE03
:1032F000CDBFDF91CF911F9108958093A2030C94CD
:103300007C168093A3030C947C1621E030E001C06E
:10331000220F8A95EAF78091A303822B0C948119DE
:103320009091E50392FD10C098E0899F90011124CF
:10333000622B6093A7030E9485190E940F0C909343
:10334000A9038093A80308950C94851921E030E027
:1033500001C0220F8A95EAF720958091A30382236A
:103360000C9481199091A703809589238093A703DA
:10337000282F2770B1F4282F082E000C330B92173A
:10338000130679F09091E50392FD0BC08595859524
:1033900085950E94A6191092A7031092A903109276
:1033A000A8030895CF93C091E503C2FB992790F934
:1033B000981799F080FBC2F9C093E5036091E4038C
:1033C00084E090E00E9410316C2F82E290E00E9435
:1033D000103182E0CF910C94B219CF910895809171
:1033E000A303982F9670963019F488600C94811975
:1033F000877FFCCF0F931F93CF93DF938B01D82F41
:10340000C92F0E94A80AA8016D2F7C2F88E090E0A8
:10341000DF91CF911F910F910C942231ECE9F3E0F1
:1034200083E0808311828FEF82838383148263E041
:1034300070E08FEF9FEF0C94FA19CF93DF9300D0D9
:1034400000D0CDB7DEB78091A003833018F48F5F32
:103450008093A00380919C0390919D03A0919E0373
:10346000B0919F0389839A83AB83BC83BC01CD0158
:103470000F900F900F900F90DF91CF910C94FA194D
:10348000CF93DF9300D000D0CDB7DEB78091A003FB
:10349000882319F081508093A00380919C03909120
:1034A0009D03A0919E03B0919F0389839A83AB8370
:1034B000BC83BC01CD010F900F900F900F90DF9156
:1034C000CF910C94FA195F926F927F928F929F9294
:1034D000AF92BF92CF92DF92EF92FF920F931F9322
:1034E000CF93DF9300D000D000D00F92CDB7DEB7DE
:1034F000182F762E042F622E90919C0390FF83C08C
:10350000E92FE695AE2FB0E0A45CBE4F8C9180937E
:103510009A039E7F9230C9F59E012F5F3F4F812F06
:103520000E94070A4B8169818A810E9401111093D0
:103530009D0370929E0300939F03662009F463C06D
:1035400080919C0390919D03A0919E03B0919F0355
:103550008C839D83AE83BF83BC01CD0127960FB6BC
:10356000F894DEBF0FBECDBFDF91CF911F910F91B9
:10357000FF90EF90DF90CF90BF90AF909F908F9093
:103580007F906F905F900C94FA19823019F400913B
:103590009F03CDCF863019F410919D03C8CF893099
:1035A000D9F3893121F6E9518E2F8170582EE69595
:1035B000F0E0E15CF84FA590B490BB2485E8E82EDC
:1035C00082E0F82ED12CC12C9CE1892E912CC601D1
:1035D000B4010E941630812F511013C0860F97013D
:1035E000402F672D0E94070ACA0CDB1C93E0E90EEE
:1035F000F11CA9EDEA16A2E0FA0649F70E940F0FA6
:1036000096CF861BECCF27960FB6F894DEBF0FBE81
:10361000CDBFDF91CF911F910F91FF90EF90DF9081
:10362000CF90BF90AF909F908F907F906F905F9062
:103630000895ECE9F3E0818121E043816281885FB4
:103640000C94631AECE9F3E0818121E0438162810B
:1036500088500C94631AECE9F3E0628128E0620F71
:1036600008F46FEF21E0438181810C94631AECE947
:10367000F3E0628128E0621B08F460E021E043810E
:1036800081810C94631AECE9F3E0438128E0420F56
:1036900008F44FEF21E0628181810C94631AECE918
:1036A000F3E0438128E0421B08F440E021E062811E
:1036B00081810C94631A69EE7EEF90E080E00E94B5
:1036C0002E3160E082E090E00E94103160E083E003
:1036D00090E00E9410311092A20360E084E090E03C
:1036E0000E94103160E082E290E00E94103160E0C0
:1036F00085E090E00E94103160E086E090E00E945A
:1037000010316FEF87E090E00E94103140E050E010
:10371000BA0188E090E00E94223160E08DE090E004
:103720000E94103140E050E0BA0188E190E00E9430
:10373000223160E087E190E00E94103140E050E0EB
:10374000BA018CE190E00E94223170E060E080E2FA
:1037500090E00E942E3140E050E0BA0188E190E014
:103760000E94223180E00E947D120E94251340E0D9
:1037700050E0BA018FE090E00E94223140E050E03A
:10378000BA0183E190E00C94223190E080E00E9445
:103790000A31893E9E4F11F40C94421380E0089543
:1037A0000E94C51B81110AC00E945B1B8091970378
:1037B00084708961809397030E944D1286E090E0A7
:1037C0000E94FC3080939703803220F087708861DC
:1037D0008093970390919703892F817090FF04C085
:1037E000892F8695869586950C94580B4F925F92FB
:1037F0006F927F928F929F92AF92BF92CF92DF9201
:10380000EF92FF920F931F93CF93DF93FC0162809F
:10381000448081E08483EFE3F6E07490EEEBF6E021
:10382000E491C6EFD1E095E8E92E92E0F92E22E886
:10383000C22E22E0D22E32E0A32EBB24B3948824E1
:103840008A94912C55245A94E7190E2F10E082E0A7
:10385000861530F080919D03888380919E03898333
:10386000411021C01B821A8297014A816981888197
:103870000E94070A259683E0E80EF11CCC16DD06AF
:1038800031F7DF91CF911F910F91FF90EF90DF9073
:10389000CF90BF90AF909F908F907F906F905F90F0
:1038A0004F900C940F0F8B818823E9F081508B830C
:1038B000859DC00111246C8170E00E941630FB01CF
:1038C000FF27E15CF94F8491E82FE719E59DC001DE
:1038D0001124B8010E94163080919F03689FB001A7
:1038E00011247A83C1CF0E94C230AC0190919F0312
:1038F000969591589A9D90019B9D300D1124232FF0
:103900003327421753070CF0AFCF82E0861588F4B7
:103910000E94C230B4010E942A3088830E94C230C3
:1039200020919E032695622F70E00E942A30280F76
:1039300029831A8280919F03893C20F088EC8C8334
:103940008B8392CF8431D8F784E1F9CF60919C03C7
:10395000669570E04BE050E088E091E00E94DB303B
:10396000892B19F481E080939B030E940F0C9093A4
:10397000FB028093FA020895CF93DF9300D000D02A
:10398000CDB7DEB790919C0390FF45C08823E1F14D
:103990008B32E0F58F77880F90919C039170892B83
:1039A00080939C03662381F080919C0390919D03FA
:1039B000A0919E03B0919F0389839A83AB83BC83BC
:1039C000BC01CD010E94FA1960919C03669570E0DC
:1039D0004BE050E088E091E00E94DB30892BC1F0A1
:1039E00010929B0381E08093FD0220E040919F03B1
:1039F00060919E0380919D030F900F900F900F9008
:103A0000DF91CF910C94631A81E0C5CF8AE2C3CFD6
:103A10000E94A61CE7CF0F900F900F900F90DF91A0
:103A2000CF91089580919C0386958F5F8B3208F02B
:103A300081E061E00C94BC1C90919C0396958FEF03
:103A4000890F913009F48AE261E00C94BC1C9091DA
:103A50009C0390FF07C09695981720F0961710F4D6
:103A60000C94121D61E00C94BC1C8F929F92AF923B
:103A7000BF92CF92DF92EF92FF920F931F93CF935B
:103A8000DF93CDB7DEB728970FB6F894DEBF0FBE31
:103A9000CDBF7C01DC019C9111968C9111971396FE
:103AA0002D913C91232B21F089238F3F09F0F2C502
:103AB00028960FB6F894DEBF0FBECDBFDF91CF9131
:103AC0001F910F91FF90EF90DF90CF90BF90AF903C
:103AD0009F908F900895980122513F4520313105E4
:103AE00008F0C4C58FEF93E00E94FC30025147E517
:103AF000A42E43E0B42E882371F18091A703877030
:103B0000B9F2F7018281882399F28091E50382FD61
:103B1000CFCF82E028960FB6F894DEBF0FBECDBFA0
:103B2000DF91CF911F910F91FF90EF90DF90CF9099
:103B3000BF90AF909F908F900C94B219A114B4E0F5
:103B4000BB06D9F2C5010E94FC30811101C00150B1
:103B5000EFEFAE1ABE0A0111F1CF809120019091D2
:103B60002101A0912201B091230189839A83AB8323
:103B7000BC830FEF4501FFEF8F1A9F0AC5010E941A
:103B8000FC3089831A82882309F4B7CF813009F089
:103B900074C0650122E0C20ED11CC4010E94FC3039
:103BA000182F8A83882309F4A8CFC6010E94FC300D
:103BB000982E8FEF810F833068F4650133E0C30ED8
:103BC000D11C9B82992021F0CE0101960E944815BC
:103BD0005601D0CF8BEF810F833038F5C5010396A6
:103BE0009B826C019920A1F36501A4E0CA0ED11C4F
:103BF0000E94FC308C83882359F3AB80BC80B1E0F9
:103C0000AB16BFEFBB0610F0BA2CAA24163049F051
:103C1000173019F0C5010E942726C5010E946C26A5
:103C2000D7CFC5010E942726D3CF143089F665016E
:103C3000E4E0CE0ED11CC50103960E94FC30282F73
:103C4000992009F45ACF882309F457CF2150330B18
:103C5000029FA001039F500D1124292D2150330BE9
:103C6000C901840F951F019708F4B2CFAFE9BFE0F7
:103C70001197F1F700C00000F6CFCE0101960E9427
:103C800048156401A5CF81E00E9485190E94EF19B3
:103C900034CF81E00E94A619F9CF82E0F5CF82E00F
:103CA000F9CF83E00E948B0B809197030E944D1205
:103CB00024CF80E0F7CF80919703982F987F79F0F9
:103CC000885080939703887F91E009F490E0809179
:103CD000970390FB80F9809397030E944D12809187
:103CE00097038695869586950E94580B06CF8091FE
:103CF0009703982F969596959695883140F49F5FF7
:103D0000990F990F990F8770892B80939703809152
:103D100097038160E0CF8091970380FF07C08E7F7B
:103D2000809397030E944D1280E0DECF81608093E4
:103D30009703813019F489E080939703809197036A
:103D4000CCCF90919703892F8695869586958F5F26
:103D50008F719770843020F4880F880F880F982B0C
:103D60009093970380919703AECF8091970381FF43
:103D700003C00E946712C1CE0E945212BECE053F00
:103D8000ACE51A07D1F027E245EE66EE063FBCE54A
:103D90001B0741F027E245EE64EE043FECE51E0709
:103DA00009F0A7C40E940316A8CE27E245EE65EEEF
:103DB000F9CF26E241EE60EEF5CF26E241EE62EE6B
:103DC000F1CF98012A5F3C452930310508F4A6C49B
:103DD00006319CE5190709F0EEC09091A4038823F1
:103DE00009F4DFC0892F8A7A91E009F490E090937A
:103DF000990369E2811165E38EE991E00E94D90B94
:103E00000E9422147ACE053A9DE5190709F486C46A
:103E10000A35BDE51B0709F0B2C181E0CEC1F8014A
:103E2000E350FC458091E4038160E331F10530F516
:103E3000E151FE4C0C943E300330EDE51E0778F462
:103E40000A3FFCE51F0708F479C4F801EB5FFC4565
:103E5000E830F10510F5EE5FFD4C0C943E30013674
:103E60002DE5120709F496C09091E403892F8E7F07
:103E700090FF8160053A1D4509F060C48093E4031A
:103E80005DC48091E4038260F9CF8091E403846093
:103E9000F5CF8091E4038860F1CF8091E5038160E4
:103EA0008093E5034BC48091E5038260F9CF809154
:103EB000E4038061E3CF8091E4038062DFCF8091EF
:103EC000E4038064DBCF0E9497168091E40380684E
:103ED000D5CF8091E4038C60D1CF8091E5038360DE
:103EE000DFCF8091E4038E7FC9CF8091E4038D7F83
:103EF000C5CF8091E4038B7FC1CF8091E403877F9E
:103F0000BDCF8091E5038E7FCBCF8091E5038D7F80
:103F1000C7CF8091E4038F7EB1CF8091E4038F7D82
:103F2000ADCF8091E4038F7BA9CF0E94971680913B
:103F3000E4038F77A3CF8091E403837F9FCF8091A9
:103F4000E5038C7FADCF8091E40382FB992790F944
:103F500021E0922790FB82F990FB83F98FCF80912B
:103F6000E503982F909591708E7F892B90FB81F9B6
:103F700097CF0E9497169091E403892F97FB87F9BA
:103F800080587CCF61E08EE090E00E941031D6C373
:103F900060E0F9CF9091E403892F8F7E94FF8061D8
:103FA0006DCF80919903811104C089E20E94EF06D0
:103FB00027CF85E3FBCF81112BCF8091A4038272A1
:103FC000063DACE51A0778F4023CBCE51B0788F017
:103FD000F801E35CFC45E331F10508F052C0E65F0F
:103FE000FD4C0C943E306AE285E20D351D4509F426
:103FF000AEC0D70112968C911297CD90DC90882399
:1040000009F4EDC0C6010E94A613182F682FC6013F
:104010000E948806B601812F0E948A130E947207AF
:104020008C01F7019280A580A2942FE0A2228091BA
:10403000A7038770C1F0B92C9920B1F0812F807F40
:10404000803421F080E2800F883068F08091E503B1
:1040500082FD09C082E00E94B2198091A703877097
:10406000BB24B3948111B12C812F82958F70C82EFF
:10407000D12C8C3008F023C1F601E35EFD4C0C948A
:104080003E3080919C0380FF21C08E7F80939C03F3
:1040900080919C0390919D03A0919E03B0919F03FA
:1040A0008D839E83AF83B887BC01CD010E94FA192E
:1040B00010929B039FEFA0E7B2E09150A040B04068
:1040C000E1F700C000000E940F0F17CD81608093C0
:1040D0009C0361E086950E94BC1C0FCD4CE15DE124
:1040E00062E17DE10E94B70A08CD42E15DE16CE149
:1040F0007DE1F8CF42E25BE169E17BE1F3CF49E1A9
:104100005BE162E27BE1EECF47E35BE16BE27BE107
:10411000E9CF4BE25BE167E37BE1E4CF4FE45BE1B6
:1041200063E47BE1DFCF43E45BE16FE47BE1DACF83
:1041300040E45AE16DE17AE1D5CF4DE15AE160E426
:104140007AE1D0CF61E081E0C6CF65E082E00E94F5
:10415000271DD3CC68E086E0FACF6EE089E0F7CF88
:1041600064E18FE0F4CF67E185E1F1CF61E088E1C0
:10417000B2CF62E289E1EBCF61E083E2ACCF0B35F5
:10418000EDE51E0758F40115FCE51F07C9F00E3DCB
:104190001C4509F02ECF0E945B1BAFCC0B353DE5D3
:1041A0001307D9F00C351D4509F023CF8091E503A5
:1041B00082FB882780F991E089270E94D21919CFC4
:1041C0000E9497169FEFA4E3BCE09150A040B0403E
:1041D000E1F700C000000E94951180E0EECFC6011B
:1041E0000E94B806182F16CFF12FFF70AF2E107F48
:1041F00019F0A29490EFA9229920B9F0AA2069F0B1
:1042000080E2800F883010F0011109C08091A40372
:104210008A298093A4030E942214802F4EC080918B
:10422000A6038A298093A603F6CF802F0E94FA1452
:10423000AA2009F444C080E2800F883010F00111F8
:1042400004C08A2D0E941C0706C0A0948091A6037A
:104250008A218093A6030E94221431C0212F2F703F
:10426000822E107F103219F0829480EF8822002372
:1042700099F0013009F4A9C0992009F4B2C0AA202C
:1042800009F485C0D70115969C91159790FFC5CF6D
:104290009F7015969C937BC08091E50382FF4FC071
:1042A000992009F445C0882039F08091A403882919
:1042B0008093A4030E94221480E00E948814F8E0F6
:1042C000CF1AD10824E0C216D10420F40E94A10B19
:1042D0000E947806BB20B1F08091A70380FD12C038
:1042E000D70112961C928595859585950E94851912
:1042F000C7010E94351D8091A703859585958595F9
:104300000E94A61960E0C70128960FB6F894DEBF98
:104310000FBECDBFDF91CF911F910F91FF90EF9016
:10432000DF90CF90BF90AF909F908F900C94D5135B
:1043300080E00E94FA14882011F2882D83CF992002
:1043400041F1A11006C08091A10388290E94F215B5
:10435000B6CF31E0A31211C082FDB1CF8091A1038D
:10436000882A881609F4ABCF0E940F0C9093AB03F8
:104370008093AA038092A103A2CF85E0A812E3CF85
:104380000E9424078091A50388128092A503882D9E
:10439000DDCFA11006C00E942407882D0E94FC15C5
:1043A0008ECF91E0A9120CC09091A403982109F43A
:1043B00086CF8091A503882371F31092A503EBCFDC
:1043C000A5E0AA1609F47BCFE6CF992029F0B5E045
:1043D000BA1508F474CFDBCFE4E0EA1508F46FCF28
:1043E000DCCFAA20D1F2093349F4BFEFE7EEF3E0C6
:1043F000B150E040F040E1F700C00000802F0E9483
:10440000FA145DCF812F86958695837061F0813097
:1044100009F055CFC8019370911002C090E080E080
:104420000E94C30B4CCFC8019370911002C090E062
:1044300080E00E94AD0B43CF802F992029F00E948D
:1044400040090E941B0C3BCF0E949209FACF812F9A
:104450008370A1F5911033CF802F82958695877058
:10446000880F880F402F4F70082E01C0440F0A9408
:10447000EAF7202F207104FF07C02FE030E001C0D1
:10448000220F8A95EAF7209516951695137012302B
:1044900081F0822F842B133031F08091A2031130F0
:1044A00029F0242B82230E947D1909CF842B822B93
:1044B000FACF242B8091A2038227F5CF992061F1B6
:1044C00010FFFDCE802F829586958770880F880F0C
:1044D000402F4F70082E01C0440F0A94EAF7202F96
:1044E000207104FF07C02FE030E001C0220F8A9541
:1044F000EAF72095169516951370123099F0822FD1
:10450000842B133031F08091A303113041F0242B20
:1045100082230E948119D3CE11FFD1CED3CF842B19
:10452000822BF7CF242B8091A3038227F2CF1F7019
:10453000992029F0812F0E948519802F07CF802F85
:104540000E94FC15812F0E94A619B9CE023F81F16D
:1045500060F4003FB9F0013F81F0992009F476C082
:10456000A1105BCE812F8F7127C0033F41F1043F23
:10457000A1F78091E50382FF2DC0812F8F719920D3
:1045800011F31AC0992079F024E02A1508F497CE87
:104590001F7181E090E001C0880F1A95EAF79091B1
:1045A000A3038927B6CF35E03A1508F488CEF0CFBB
:1045B000812F8F719110C7CF0E94851980CE80E026
:1045C000992009F4A6CF1F7181E001C0880F1A95C8
:1045D000EAF79FCF8091A5039920F9F00E941C076C
:1045E0008091A7038770843061F41092A703109222
:1045F000A9031092A803812F8F710E94A619B12CD4
:104600005ECE84E08A15D8F31F71812F0E94851930
:1046100063E0812F0E949019F2CF9091A403982B10
:104620009093A40394E09A1568F41092A703109253
:10463000A9031092A80381111092A50364E0812FB1
:104640008F71E8CF81E00E94B219D9CFAA2059F02A
:10465000093309F0D3CEAFEFB7EEE3E0A150B0409D
:10466000E040E1F7C9CE812F8F716DCF0031BFE5FA
:104670001B0709F408CB0131EFE51E0709F40DCB48
:10468000F801EB5BFC45E730F105C0F4E75DFD4C5C
:104690000C943E3061E0C7010E94D5138C01D70114
:1046A00012968C91811117CA0031FFE51F0709F49A
:1046B000F0CA01312FE5120709F4F1CA033FECE516
:1046C0001E0709F476CB08F05ACB083D2CE51207FB
:1046D00009F46BCB28E241E0093D3CE5130709F4FE
:1046E00066CB26E241EE61EE073D9CE5190709F431
:1046F00059CB882309F46CCB109298030136FDE561
:104700001F0761F008F07FCB06313CE5130708F086
:1047100058CB02308CE5180708F47ACB0E9434138A
:104720009093E5038093E4030631ACE51A0708F0A3
:1047300083CB0230BCE51B0708F071CB6091E4032A
:104740001091E50384E090E00E941031612F82E235
:1047500090E00E9410310E949716CFC91F93CF930B
:10476000DF938091E303807FA9F48091E0038823A5
:1047700089F08091AD03C091AC037091DE0360912C
:10478000DF03A091E103B091E203D62FD72316E017
:10479000C81304C0DF91CF911F91089590E0109746
:1047A00011F0DF3F19F401968770F2CF189F900146
:1047B000199F300D1124F901E255FC4F418164131A
:1047C000F2CF40814713EFCF42814111ECCF4381BB
:1047D00054814A1B5B0B483C510528F78091E30349
:1047E0008F7080618093E303F901ED54FC4F808169
:1047F0008F70806180838EED93E00E94351DDF9184
:10480000CF911F910C94E5068F929F92AF92BF9229
:10481000DF92EF92FF920F931F93CF93DF93CDB769
:10482000DEB72B970FB6F894DEBF0FBECDBF8C015D
:1048300085E0F801DE01179601900D928A95E1F767
:10484000F801E280A380B4808EED882E83E0982E5C
:104850009091DE038091DF032091E1033091E20328
:104860002115310529F0482F49234F3F09F028C170
:10487000EE2009F433C1F801808191810E94021475
:10488000F82E882309F42AC186E0F801AEEDB3E0E2
:1048900001900D928A95E1F70E94AE2321C0D0903D
:1048A000E3034D2D407F283C310508F0A8C0F801F6
:1048B00021814111C3C0FE2C281325C0808189139A
:1048C00022C0E11020C08D2D8F7080618093E303A2
:1048D0008EED93E00E94351D8091E303F8018583FE
:1048E0008F2D2B960FB6F894DEBF0FBECDBFDF9194
:1048F000CF911F910F91FF90EF90DF90BF90AF90FD
:104900009F908F9008953F81AB2829F0822F8323B9
:104910008F3F09F090C080E0F82FF170DF2EE0911A
:10492000AD034091AC0356E080FD1CC0EE20C1F207
:104930008091E30381608093E303F12CD1CF8E2F2C
:1049400090E05E9FF0011124E255FC4F6181261337
:1049500006C06081361303C06281E612E7CF01967C
:10496000E82FE770E413EBCF8F8198850E94F41352
:10497000292F22952F70903260F0225F2F70223005
:1049800078F49F7051F0F8019581907F31F4D12C2B
:104990000AC09F7011F08823D1F3805E8830B8F38D
:1049A000C8010E94351DFD2C9BCFF80180819181AB
:1049B0000E940214882309F491C0EE2009F48EC0ED
:1049C0008091E303803270F08091DE039091DF03E9
:1049D0009A8389831B82BD82AC82DE82CE010196DE
:1049E0000E94351D86E0F801AEEDB3E001900D9216
:1049F0008A95E1F70E94AE23FF24F39471CF411111
:104A000032C08EED93E00E94351D86E0F4011192D4
:104A10008A95E9F792CFF801808191810E94021472
:104A20008111E0CF8091E30381608093E303C801AB
:104A30000E94351D55CF81E08E256ECF2813B5CF4E
:104A4000F80180818913B1CFE110AFCFD582C801C1
:104A50000E94351D86E0F801AEEDB3E001900D92A5
:104A60008A95E1F73DCFF801218182139ECFF801AD
:104A7000808189139ACFE11098CFD582C8010E9416
:104A8000351D86E0F40111928A95E9F729CFF801E6
:104A900021818213C0CFF80180818913BCCF80911E
:104AA000E30380FDD7CF982F907FA1F28583903FBD
:104AB00071F2982F907F905F8F70892B8583C7CF7D
:104AC000F090E003A501421B530B9A01F110E7CED1
:104AD000283C3105B0F6FE2CE110D9CFC8010E9468
:104AE000351D8ACF1F93CF93DF93CDB7DEB767977E
:104AF0000FB6F894DEBF0FBECDBF4B8B5C8B162F6D
:104B00006D8B7E8B8F8B61111092A6031A8A85E0C4
:104B1000FE017396DE011D9601900D928A95E1F7D4
:104B20008091E50382FD1CC00E940F0C2091A80318
:104B30003091A903821B930B8838934120F0809118
:104B4000A70382FF80C00E940F0C2091AA0330911E
:104B5000AB03821B930B8838934110F00E9424070B
:104B60001F8786E0FE013D96DE01179601900D92AB
:104B70008A95E1F7CE0107960E940424882389F0E4
:104B800016E08091AD039091AC03891349C06796FC
:104B90000FB6F894DEBF0FBECDBFDF91CF911F914E
:104BA000089586E0FE013796DE01119601900D9280
:104BB0008A95E1F78F8198852091AC034091AD03F0
:104BC0006A857B85672BE1F289238F3FC9F230E04C
:104BD000C9010196877099274817190671F40E9438
:104BE00097161092AC031092AD0386E0EEEDF3E061
:104BF000DF011D928A95E9F7C3CF96E0929FD0011D
:104C0000939FB00D1124A255BC4FFE013196019027
:104C10000D929A95E1F78093AC030E94E506B0CF20
:104C2000819FC001112482559C4F0E940424882337
:104C300009F4ADCF8091AD0390E00196877099277C
:104C40008093AD039ECF82E00E94B2197CCF0F9378
:104C50001F93CF93DF9300D000D00F92CDB7DEB774
:104C60008C019093F5018093F401011580E21807FF
:104C7000D8F4C801805E9109089728F067E676E1CC
:104C80000115110511F462EF75E1C8010E944D068E
:104C9000802F0F900F900F900F900F90DF91CF917A
:104CA0001F910F910C9488148EEF89838A8381E081
:104CB0008B830E940F0C8160782F49815A816B8110
:104CC000892F0F900F900F900F900F90DF91CF9141
:104CD0001F910F910C9472250F931F93CF93DF9325
:104CE00000D000D00F92CDB7DEB78C019093F501C4
:104CF0008093F401011580E21807D8F4802F0E94F8
:104D0000FA14C801805E9109089728F061E776E1FE
:104D10000115110511F46CEF75E1C8010F900F90AA
:104D20000F900F900F90DF91CF911F910F910C94E6
:104D30004D068EEF89838A831B820E940F0C81604F
:104D4000782F49815A816B81892F0F900F900F9096
:104D50000F900F90DF91CF911F910F910C947225BE
:104D6000CDB7DEB7AC970FB6F894DEBF0FBECDBFA0
:104D700084B7877F84BF0FB6F894A89580916000B0
:104D8000886180936000109260000FBE80E890E020
:104D90000FB6F89480936100909361000FBE85B7C1
:104DA000806885BF85B7806885BF8BEF98E090935A
:104DB0009D0180939C010E94FE0C0E949C0D80919D
:104DC000E20084608093E20078948091110388234C
:104DD00099F08091E9001091EC0017951127179533
:104DE0008F70182B1092E9008091E80083FD0E94DB
:104DF000AC161F701093E90082E084BD93E095BD6E
:104E00009AEF97BD80936E000E944213811102C0F9
:104E10000E942513769A289889982D9A2F9A889A15
:104E2000A7E6B1E04DE651E061E070E08D91E82F3A
:104E3000E295EF70F0E091A18F709B0101C0220F0D
:104E40008A95EAF7822F8095892381A382A1822BFC
:104E500082A34A175B0751F7259A279A809A209ACE
:104E6000819A6E9A88E1EDE2F3E0DF01282F1D922E
:104E70002A95E9F7E5E1F3E0DF011D928A95E9F76C
:104E80000E94C51B811102C00E945B1B82E090E062
:104E90000E94FC308093E1020E9434139093E5035A
:104EA0008093E4030E94FD0DEFE3FCE93197F1F7F5
:104EB00000C000000E94FD0D8091150380FF08C016
:104EC0006FEF7FEF90E080E00E942E310E949511FD
:104ED00083E090E00E94FC300E947D19579A5F9811
:104EE000569A5E98249A2C98269A2E9882E280935D
:104EF000800089E1809381008FEF9FEF909387007E
:104F0000809386000E94D01B8091970381FF0BC085
:104F10001092DB021092DA021092D90280916F0097
:104F2000816080936F000E94D01B8091DC02811110
:104F300033C00E94C51B811104C00E945B1B0E94EC
:104F40000E1A88E090E00E94043160939C037093F5
:104F50009D0380939E0390939F036E7F71F40E9444
:104F60000E1A88E090E00E94043160939C037093D5
:104F70009D0380939E0390939F030E94A80A109222
:104F80009B0380919C0380FF04C060E086950E9493
:104F9000BC1C81E08093DC0283E191E090934603A6
:104FA000809345039E012F5F3F4F3901809111038C
:104FB000FF24F39400E112E1853009F417C20E9446
:104FC000FD0D882359F08FB7F89440910903509153
:104FD0000A0360910B0370910C038FBF45E153E00E
:104FE0005AA749A7E2EEF2E0DA0110E000E0902FC4
:104FF0004D915D916D917D91C190D190E190F19035
:10500000C416D506E606F70609F417C216012701ED
:10501000242635264626572680E0812C912C5401E3
:10502000839475016401C220D320E420F520CD28AB
:10503000CE28CF2809F4F9C189839A8348215921C0
:105040006A217B2181E0452B462B472B09F480E028
:105050008B830E940F0C8160782F9D838C83498104
:105060005A816B81892F0E947225000F111F000F3A
:10507000111FF801EE51FD4F80819181A281B38112
:1050800088259925AA25BB2580839183A283B38394
:1050900080919B038823D1F180919A03E0919C0336
:1050A000E695E81BE093FC02823009F0DDC1F0E0F8
:1050B000EB5AF74FE4910E2F10E031E7C32E31E1A8
:1050C000D32E8091FD02882361F01092FD020E9490
:1050D0000F0C9093FB028093FA021092FF02109241
:1050E000FE020E940F0C2091FA023091FB02821BFB
:1050F000930B8F3F9F4750F4200F311F3093FB02DB
:105100002093FA028AEF92E0F601099586E0E1E940
:10511000F3E0D30101900D928A95E1F7C0909303DB
:10512000D0909403009195031091960310929303ED
:105130001092940310929503109296038C2D8D2952
:1051400009F448C080910203909103030E94410C2E
:105150009C0180919003882309F45BC525313105BA
:10516000C8F18F3F19F08F5F80939003CC2059F0E6
:105170000E94FE089FEF1C140CF491E0899F802D83
:10518000112480939303DD2059F00E94FE089FEFC5
:105190001D140CF491E0899F802D112480939403B9
:1051A000309193033323B1F020919403222391F0A3
:1051B00045EB3403C0011124992309F4C5C1909330
:1051C000930355EB250390011124332309F4C0C147
:1051D00030939403802F812B09F448C08091000301
:1051E000909101030E94410C9C0180918F038823C0
:1051F00009F40AC521353105C8F18F3F19F08F5FD9
:1052000080938F03002359F00E941E099FEF101610
:105210000CF491E0899F802D112480939503112334
:1052200059F00E941E099FEF11160CF491E0899F1E
:10523000802D11248093960330919503209196033D
:105240003323A1F0222391F045EB3403C001112454
:10525000992309F481C19093950355EB250390019F
:105260001124332309F47CC1309396038091930376
:1052700090919403892B90919503892B909196039B
:10528000892B11F00E941B0C86E0F301A1E9B3E029
:1052900001900D928A95E1F70E94A10B9091040371
:1052A000891721F0809304030E94780680911103EE
:1052B000843009F07BCE83E08093E9008091E800A0
:1052C00082FF74CE8091E80090E085FF0AC00E94C2
:1052D000CD0C50E2C52ED12C8301882309F44EC198
:1052E00091E08091E8008B778093E800992309F49E
:1052F0005DCE00910F0310911003E9810115110596
:1053000009F44AC1EE3F09F07EC18A81833020F062
:105310008550833008F077C1EA81EE3008F073C120
:10532000F0E0E05DFD4C0C943E3080911103843040
:1053300009F446C080E00E94580B80E00E94780685
:1053400010929B038091DF02811116C0F092DF0260
:1053500080919C03982F91709093DE028E7F8093B2
:105360009C033FEF40E752E0315040405040E1F7AE
:1053700000C000000E940F0F1092DD0288E190E053
:10538000A0E40FB6F894A895809360000FBEA09398
:10539000600083B7817F846083BF83B7816083BFF0
:1053A0007894889583B78E7F83BF0FB6F894A895BD
:1053B00080916000886180936000109260000FBE51
:1053C0008091E002882391F00E94FD0DE5E1F3E079
:1053D00081919191A191B191892B8A2B8B2B09F00D
:1053E000F5C32DE233E02E173F0791F780911103AB
:1053F000853009F49ACF0E9497160E94D01B0E9414
:10540000A10B0E9478061092DF028091DE028823B1
:1054100049F080919C03816080939C0360E08695B5
:105420000E94BC1C0E94A61CCACD8F5F880C991CD0
:10543000AA1CBB1C813109F0F4CD0F5F1F4F063051
:10544000110509F0D4CD8FEF89838A831B820E94D6
:105450000F0C8160782F9D838C8349815A816B81E9
:10546000892F0E94722514CE08E210E075E2C72E43
:1054700070E1D72E883109F424CEE8F48F3009F496
:1054800047C060F4863069F1893009F435C000ED19
:1054900017E02DEFC22E28E0D22E13CE8531B9F7BA
:1054A000F0E0E75BF74FE4910E2F10E0A7EDCA2E76
:1054B000AFE0DA2E06CE04EF11E069ECC62E60E113
:1054C000D62E843209F4FDCD853271F18332F9F69E
:1054D000E7E4F8E005911491F2E1CF2EF1E1DF2E3F
:1054E000F0CDF0E0EE5AF74FE4910E2F10E095E882
:1054F000C92E91E1D92EE5CDE695F0E0E15BF74FBD
:10550000E4910E2F10E084E4C82E8FE0D82ED9CD80
:10551000E695F0E0E45BF74FE4910E2F10E0BEE675
:10552000CB2EBFE0DB2ECDCD8E2F63E00E94FC2F73
:10553000E92FF0E0EC5BF74FE4910E2F10E0E6EF7F
:10554000CE2EEBE1DE2EBDCD81E08093930339CEEC
:1055500081E0809394033ECE81E0809395037DCEDD
:1055600081E08093960382CE8091F100D8018D93E3
:105570008D01B1E0CB1AD10809F4B2CE8091E800D8
:1055800085FDF2CF8091E8008B778093E8000E9440
:10559000CD0C882399F3A4CEE43150F4EE2359F0D6
:1055A000E150E33140F4F0E0E25CFD4C0C943E301D
:1055B000EE3F09F4B1CE8FEF898325C01A8289E0CE
:1055C0008B8321C08A81823009F416C38330F9F0BD
:1055D000813089F78FB7F8942091090330910A033D
:1055E00040910B0350910C0329A73AA74BA75CA746
:1055F0008FBF69A57AA58BA59CA50E9444306B83BB
:105600007C838D839E83C3010E94470DCFCC809104
:105610000D0390910E03892BB1F3F301A9A5BAA54F
:105620004D915D916D917D91BAA7A9A76283538336
:1056300044833396AD52B34089F7E5CF8A818230F7
:1056400009F0B9CF8B819C81AD81BE8189A79AA7D2
:10565000ABA7BCA7BC01CD010E94443086E290E01C
:105660000E941031D0CF4C816B818A810E945B13E4
:105670009827892798279E838D83C5CF2D813E81CA
:105680003227232732274C816B818A810E94951211
:10569000BACF0E94CA12B7CF8A81893031F18A30DD
:1056A00089F18A81823809F450C0A8F58038E1F187
:1056B000813809F0A8CF60E08B810E94BC1C9B81DF
:1056C00080919C03911139C08E7F80939C0310922E
:1056D0009B03BFEFE0E7F2E0B150E040F040E1F7BC
:1056E00000C000000E940F0F8ECF8B81A3E08A9F25
:1056F000C00111246FEF70E00E941630862F0E94C7
:105700008B0BCFCF8B81811103C00E946712C9CF51
:105710000E945212C6CF833809F075CF20E0409125
:105720009F036C818B8106C020E04B8160919E03BA
:1057300080919D030E94631A66CF816080939C03D1
:1057400060E086950E94BC1C5ECF8B818093A00395
:105750005ACF8A81893059F08A30C1F0813839F1C5
:10576000D0F4803809F04FCF80919F0329CF8091EA
:1057700097038695869586952FEF829FC001112409
:1057800063E070E00E9416306B833DCF80919703F9
:105790008695817015CF823891F0833809F033CF28
:1057A00080919D038B8380919E038C832CCF80916D
:1057B0009C0380FF02C0869503CF80E001CF8091DB
:1057C000A003FECE809197030E944D1280919C030E
:1057D00090919D03A0919E03B0919F0389A79AA7E2
:1057E000ABA7BCA7BC01CD010E94FA190CCF80E188
:1057F0008A8309CF1A8289EAE3CE8C81082F10E0D0
:105800008D3108F000CFCA80DB80DC24CD24DC247D
:105810000C0D1D1D7E0195E0E90EF11CC601895A93
:105820009C4FC016D10609F4EECEA9EACA16D104DF
:1058300048F40E94FC30F70181937F01FFEFCF1AFB
:10584000DF0AECCF80E0F7CF80910D0390910E033B
:10585000892B09F4D8CE8C81E82EF12C8D3108F0FB
:10586000D2CE0A811B811027012710276301E60C85
:10587000F71CC801895A9C4FCE14DF0409F4C3CE2B
:10588000093A110528F4D60114966C910E94103142
:105890000F5F1F4FBFEFCB1ADB0AEBCF0E94151330
:1058A000B2CE84E0A5CF8C81082F10E08D3108F0B6
:1058B000AACECA80DB80DC24CD24DC240C0D1D1D87
:1058C0007E01E5E0EE0EF11CC6018796C016D106FA
:1058D00009F499CEF0E3CF16F3E0DF0648F40E9416
:1058E000FC30D7018D937D01BFEFCB1ADB0AECCFE3
:1058F00080E0F7CF8C81E82EF12C8D3108F083CE3B
:105900000A811B811027012710270033E3E01E07BF
:1059100008F079CE80E393E0801B910B8E159F05F4
:1059200008F471CE4801F7E28F0E911C80910D03AF
:1059300090910E03892BB9F5680121E0C222DD2484
:1059400000FF0DC0C80186960E94FC309D8189270A
:105950009827892781159C4511F48FEF8D83C70106
:10596000800F911F570180FF17C041E0A41AB108B2
:1059700045E0442E512C4C0E5D1E4A0C5B1CC401AC
:105980008E0D9F1D0E94FC30D2019C9181159C457B
:1059900019F48FEFF2018083F301EC0DFD1D2FEF61
:1059A000CA14DB0420F06301E60CF71C1AC09481D2
:1059B000858181159C4511F42483258342E0C40E22
:1059C000D11C3296EDCF003353E0150728F4D601F1
:1059D00014966C910E9410310F5F1F4FBFEFCB1ACE
:1059E000DB0AC8018796EC14FD0469F70CCE8091A0
:1059F0000D0390910E03892B09F405CEC3010E947B
:105A0000470DEFEFF1EE24E0E150F0402040E1F7E8
:105A100000C000005BCA88E0E4E2F1E0DE0191969C
:105A200001900D928A95E1F7FE0132968FE1DF0138
:105A30001D928A95E9F785E0898388E07F96DE01EB
:105A4000159601900D928A95E1F7DDCD8CE1898361
:105A500083E08A831B821C82D6CD8C8190E0982FB4
:105A600088272B81820F911D092E000CAA0BBB0BDE
:105A700035E0880F991FAA1FBB1F3A95D1F7AC01DB
:105A8000BD01405E5F4F6F4F7F4F481759076A0750
:105A90007B0708F4B8CD8C31E3E09E07A105B10582
:105AA00008F0B1CD4D31F3E05F076105710510F0ED
:105AB0004CE153E0481B590BBC01675A774FC301B7
:105AC0000E94D230A0CD4AE150E06FEF70E0CE01ED
:105AD00007960E94F53080910D0389830A831B820B
